{
  "address": "0x9fE46736679d2D9a65F0992F2272dE9f3c7fa6e0",
  "abi": [
    {
      "inputs": [
        {
          "internalType": "string[4]",
          "name": "tokenUris",
          "type": "string[4]"
        }
      ],
      "stateMutability": "nonpayable",
      "type": "constructor"
    },
    {
      "anonymous": false,
      "inputs": [
        {
          "indexed": true,
          "internalType": "address",
          "name": "owner",
          "type": "address"
        },
        {
          "indexed": true,
          "internalType": "address",
          "name": "approved",
          "type": "address"
        },
        {
          "indexed": true,
          "internalType": "uint256",
          "name": "tokenId",
          "type": "uint256"
        }
      ],
      "name": "Approval",
      "type": "event"
    },
    {
      "anonymous": false,
      "inputs": [
        {
          "indexed": true,
          "internalType": "address",
          "name": "owner",
          "type": "address"
        },
        {
          "indexed": true,
          "internalType": "address",
          "name": "operator",
          "type": "address"
        },
        {
          "indexed": false,
          "internalType": "bool",
          "name": "approved",
          "type": "bool"
        }
      ],
      "name": "ApprovalForAll",
      "type": "event"
    },
    {
      "anonymous": false,
      "inputs": [
        {
          "indexed": true,
          "internalType": "address",
          "name": "from",
          "type": "address"
        },
        {
          "indexed": true,
          "internalType": "address",
          "name": "to",
          "type": "address"
        },
        {
          "indexed": true,
          "internalType": "uint256",
          "name": "tokenId",
          "type": "uint256"
        }
      ],
      "name": "Transfer",
      "type": "event"
    },
    {
      "inputs": [
        {
          "internalType": "address",
          "name": "to",
          "type": "address"
        },
        {
          "internalType": "uint256",
          "name": "tokenId",
          "type": "uint256"
        }
      ],
      "name": "approve",
      "outputs": [],
      "stateMutability": "nonpayable",
      "type": "function"
    },
    {
      "inputs": [
        {
          "internalType": "address",
          "name": "owner",
          "type": "address"
        }
      ],
      "name": "balanceOf",
      "outputs": [
        {
          "internalType": "uint256",
          "name": "",
          "type": "uint256"
        }
      ],
      "stateMutability": "view",
      "type": "function"
    },
    {
      "inputs": [
        {
          "internalType": "uint256",
          "name": "tokenId",
          "type": "uint256"
        }
      ],
      "name": "getApproved",
      "outputs": [
        {
          "internalType": "address",
          "name": "",
          "type": "address"
        }
      ],
      "stateMutability": "view",
      "type": "function"
    },
    {
      "inputs": [],
      "name": "getTokenCounter",
      "outputs": [
        {
          "internalType": "uint256",
          "name": "",
          "type": "uint256"
        }
      ],
      "stateMutability": "view",
      "type": "function"
    },
    {
      "inputs": [
        {
          "internalType": "address",
          "name": "owner",
          "type": "address"
        },
        {
          "internalType": "address",
          "name": "operator",
          "type": "address"
        }
      ],
      "name": "isApprovedForAll",
      "outputs": [
        {
          "internalType": "bool",
          "name": "",
          "type": "bool"
        }
      ],
      "stateMutability": "view",
      "type": "function"
    },
    {
      "inputs": [],
      "name": "mintNft",
      "outputs": [
        {
          "internalType": "uint256",
          "name": "",
          "type": "uint256"
        }
      ],
      "stateMutability": "nonpayable",
      "type": "function"
    },
    {
      "inputs": [],
      "name": "name",
      "outputs": [
        {
          "internalType": "string",
          "name": "",
          "type": "string"
        }
      ],
      "stateMutability": "view",
      "type": "function"
    },
    {
      "inputs": [
        {
          "internalType": "uint256",
          "name": "tokenId",
          "type": "uint256"
        }
      ],
      "name": "ownerOf",
      "outputs": [
        {
          "internalType": "address",
          "name": "",
          "type": "address"
        }
      ],
      "stateMutability": "view",
      "type": "function"
    },
    {
      "inputs": [
        {
          "internalType": "address",
          "name": "from",
          "type": "address"
        },
        {
          "internalType": "address",
          "name": "to",
          "type": "address"
        },
        {
          "internalType": "uint256",
          "name": "tokenId",
          "type": "uint256"
        }
      ],
      "name": "safeTransferFrom",
      "outputs": [],
      "stateMutability": "nonpayable",
      "type": "function"
    },
    {
      "inputs": [
        {
          "internalType": "address",
          "name": "from",
          "type": "address"
        },
        {
          "internalType": "address",
          "name": "to",
          "type": "address"
        },
        {
          "internalType": "uint256",
          "name": "tokenId",
          "type": "uint256"
        },
        {
          "internalType": "bytes",
          "name": "data",
          "type": "bytes"
        }
      ],
      "name": "safeTransferFrom",
      "outputs": [],
      "stateMutability": "nonpayable",
      "type": "function"
    },
    {
      "inputs": [
        {
          "internalType": "address",
          "name": "operator",
          "type": "address"
        },
        {
          "internalType": "bool",
          "name": "approved",
          "type": "bool"
        }
      ],
      "name": "setApprovalForAll",
      "outputs": [],
      "stateMutability": "nonpayable",
      "type": "function"
    },
    {
      "inputs": [
        {
          "internalType": "bytes4",
          "name": "interfaceId",
          "type": "bytes4"
        }
      ],
      "name": "supportsInterface",
      "outputs": [
        {
          "internalType": "bool",
          "name": "",
          "type": "bool"
        }
      ],
      "stateMutability": "view",
      "type": "function"
    },
    {
      "inputs": [
        {
          "internalType": "string",
          "name": "svg",
          "type": "string"
        }
      ],
      "name": "svgToImageURI",
      "outputs": [
        {
          "internalType": "string",
          "name": "",
          "type": "string"
        }
      ],
      "stateMutability": "pure",
      "type": "function"
    },
    {
      "inputs": [],
      "name": "symbol",
      "outputs": [
        {
          "internalType": "string",
          "name": "",
          "type": "string"
        }
      ],
      "stateMutability": "view",
      "type": "function"
    },
    {
      "inputs": [
        {
          "internalType": "uint256",
          "name": "tokenIdx",
          "type": "uint256"
        }
      ],
      "name": "tokenURI",
      "outputs": [
        {
          "internalType": "string",
          "name": "",
          "type": "string"
        }
      ],
      "stateMutability": "view",
      "type": "function"
    },
    {
      "inputs": [
        {
          "internalType": "address",
          "name": "from",
          "type": "address"
        },
        {
          "internalType": "address",
          "name": "to",
          "type": "address"
        },
        {
          "internalType": "uint256",
          "name": "tokenId",
          "type": "uint256"
        }
      ],
      "name": "transferFrom",
      "outputs": [],
      "stateMutability": "nonpayable",
      "type": "function"
    }
  ],
  "transactionHash": "0x1e3dbb7808e3d73959becb202486d88e9b06d1e6ec92dcbf1f45a7b20a560470",
  "args": [
    [
      "<?xml version=\"1.0\" encoding=\"UTF-8\" standalone=\"no\"?>\n<!-- Created with Inkscape (http://www.inkscape.org/) -->\n\n<svg\n   width=\"105.83353mm\"\n   height=\"105.83333mm\"\n   viewBox=\"0 0 105.83353 105.83333\"\n   version=\"1.1\"\n   id=\"svg2537\"\n   inkscape:version=\"1.1.1 (3bf5ae0d25, 2021-09-20)\"\n   sodipodi:docname=\"placeholder_avatar_1x1.svg\"\n   xmlns:inkscape=\"http://www.inkscape.org/namespaces/inkscape\"\n   xmlns:sodipodi=\"http://sodipodi.sourceforge.net/DTD/sodipodi-0.dtd\"\n   xmlns=\"http://www.w3.org/2000/svg\"\n   xmlns:svg=\"http://www.w3.org/2000/svg\">\n  <sodipodi:namedview\n     id=\"namedview2539\"\n     pagecolor=\"#ffffff\"\n     bordercolor=\"#666666\"\n     borderopacity=\"1.0\"\n     inkscape:pageshadow=\"2\"\n     inkscape:pageopacity=\"0.0\"\n     inkscape:pagecheckerboard=\"0\"\n     inkscape:document-units=\"mm\"\n     showgrid=\"false\"\n     showguides=\"false\"\n     inkscape:zoom=\"1.4159882\"\n     inkscape:cx=\"309.67772\"\n     inkscape:cy=\"253.88629\"\n     inkscape:window-width=\"1920\"\n     inkscape:window-height=\"1009\"\n     inkscape:window-x=\"1912\"\n     inkscape:window-y=\"-8\"\n     inkscape:window-maximized=\"1\"\n     inkscape:current-layer=\"layer1\" />\n  <defs\n     id=\"defs2534\" />\n  <g\n     inkscape:label=\"Layer 1\"\n     inkscape:groupmode=\"layer\"\n     id=\"layer1\"\n     transform=\"translate(-2.9508733,-89.816189)\">\n    <path\n       fill-rule=\"evenodd\"\n       clip-rule=\"evenodd\"\n       d=\"m 15.583845,89.836687 c 26.706677,-0.012 53.561358,0.012 80.261913,-0.012 5.227722,-0.200021 10.153072,3.150016 12.029352,8.012059 1.25285,3.035014 0.82717,6.350554 0.88248,9.581564 0,25.1177 -0.006,50.25391 0.006,75.37211 0.0988,4.51504 -2.38226,9.26608 -6.46834,11.34809 -1.98768,1.06501 -4.203018,1.51501 -6.449764,1.50501 -26.533786,-0.006 -53.104711,-0.012 -79.638546,0.006 -1.790147,-0.006 -3.555111,-0.2 -5.24012,-0.83 -3.5427644,-1.26001 -6.2708004,-4.45504 -7.4188152,-7.97506 -0.8084066,-2.59501 -0.5432184,-5.68355 -0.5738344,-8.38906 0.0062,-23.6787 0.0062,-47.36339 0,-71.04159 0.04938,-3.51001 -0.4000063,-6.96205 1.1787809,-10.211567 1.9812614,-4.455042 6.5547547,-7.419056 11.4307197,-7.370056 z\"\n       fill=\"#87ceeb\"\n       id=\"path2511\"\n       style=\"stroke-width:13.1474\" />\n    <path\n       fill-rule=\"evenodd\"\n       clip-rule=\"evenodd\"\n       d=\"m 48.136231,103.36079 c -3.439553,0.01 -6.880141,0.02 -10.320582,-0.014 -0.261732,0.004 -0.522476,0.004 -0.787172,0.004 -0.989149,-0.001 -2.003978,-0.002 -2.953124,0.2 -1.610888,0.54501 -2.678556,2.56502 -2.154104,4.20002 0.429634,1.29503 1.506193,2.34504 2.907198,2.47004 1.784715,0.15 3.586223,0.15 5.386296,0.1 1.070137,-0.014 2.139781,-0.0294 3.20498,-0.006 -0.09876,0.15 -0.202472,0.35 -0.301238,0.5 -1.201003,1.98501 -2.342748,3.87502 -2.906212,6.18805 -1.000013,4.87004 -0.543216,9.93957 2.246449,14.16511 4.382282,7.31405 14.195845,10.68709 22.089926,7.31405 8.215024,-2.98001 13.381068,-12.5961 11.146766,-21.07166 -1.864221,-7.74056 -8.81997,-13.87461 -16.886794,-14.05361 -3.555602,-0.038 -7.112737,-0.0276 -10.670759,-0.018 z m 20.515238,15.15212 c -1.444465,-5.80055 -8.196604,-9.60607 -13.899644,-7.70306 -3.647456,1.16 -6.573222,3.99002 -7.566915,7.72806 -1.764961,5.78805 1.944223,12.4721 7.875561,13.8376 3.197081,0.53501 6.511545,0.40001 9.202643,-1.58 3.943757,-2.70002 5.672076,-7.69706 4.388207,-12.2811 z\"\n       fill=\"#ffffff\"\n       id=\"path2513\"\n       style=\"stroke-width:13.1474\" />\n    <path\n       fill-rule=\"evenodd\"\n       clip-rule=\"evenodd\"\n       d=\"m 37.803401,147.27565 c 12.949063,0.05 25.972101,-0.05 38.908866,0.0244 2.443984,-0.05 4.406973,2.59501 3.35165,4.87502 -0.753096,1.66003 -2.209411,2.25003 -3.956597,2.25003 -6.12887,0.1 -12.263866,-0.05 -18.392789,0.05 6.770807,6.72105 13.430452,13.55961 20.176567,20.29916 0.95063,1.03001 2.110645,2.14501 2.049411,3.67004 -0.05432,1.83501 -1.413353,3.22501 -3.221772,3.43002 -1.598539,0.2 -2.796086,-1.05501 -3.851409,-2.06502 -5.59815,-5.72654 -11.21467,-11.43459 -16.886894,-17.08714 -5.073399,5.59655 -10.177815,11.1751 -15.282179,16.74114 -1.382241,1.38501 -2.69732,3.03502 -4.882041,2.28001 -1.672615,-0.5 -1.968916,-1.96001 -2.759048,-3.30501 1.289893,-3.16504 3.72795,-5.00405 5.900474,-7.49958 4.005979,-4.44002 8.110232,-8.79056 12.066481,-13.2816 -1.074087,-1.03001 -2.10472,-2.36501 -3.401033,-3.10002 -3.839063,-0.45 -7.801437,0.2 -11.634378,-0.25 -2.388674,-0.45 -3.616839,-3.22003 -2.295832,-5.31304 0.938283,-1.57001 2.42571,-1.74001 4.110671,-1.73001 z\"\n       fill=\"#ffffff\"\n       id=\"path2515\"\n       style=\"stroke-width:13.1474\" />\n  </g>\n</svg>\n",
      "<?xml version=\"1.0\" encoding=\"UTF-8\" standalone=\"no\"?>\n<!-- Created with Inkscape (http://www.inkscape.org/) -->\n\n<svg\n   width=\"105.83353mm\"\n   height=\"105.83333mm\"\n   viewBox=\"0 0 105.83353 105.83333\"\n   version=\"1.1\"\n   id=\"svg2537\"\n   inkscape:version=\"1.1.1 (3bf5ae0d25, 2021-09-20)\"\n   sodipodi:docname=\"placeholder_avatar_1x1.svg\"\n   xmlns:inkscape=\"http://www.inkscape.org/namespaces/inkscape\"\n   xmlns:sodipodi=\"http://sodipodi.sourceforge.net/DTD/sodipodi-0.dtd\"\n   xmlns=\"http://www.w3.org/2000/svg\"\n   xmlns:svg=\"http://www.w3.org/2000/svg\">\n  <sodipodi:namedview\n     id=\"namedview2539\"\n     pagecolor=\"#ffffff\"\n     bordercolor=\"#666666\"\n     borderopacity=\"1.0\"\n     inkscape:pageshadow=\"2\"\n     inkscape:pageopacity=\"0.0\"\n     inkscape:pagecheckerboard=\"0\"\n     inkscape:document-units=\"mm\"\n     showgrid=\"false\"\n     showguides=\"false\"\n     inkscape:zoom=\"1.4159882\"\n     inkscape:cx=\"309.67772\"\n     inkscape:cy=\"253.88629\"\n     inkscape:window-width=\"1920\"\n     inkscape:window-height=\"1009\"\n     inkscape:window-x=\"1912\"\n     inkscape:window-y=\"-8\"\n     inkscape:window-maximized=\"1\"\n     inkscape:current-layer=\"layer1\" />\n  <defs\n     id=\"defs2534\" />\n  <g\n     inkscape:label=\"Layer 1\"\n     inkscape:groupmode=\"layer\"\n     id=\"layer1\"\n     transform=\"translate(-2.9508733,-89.816189)\">\n    <path\n       fill-rule=\"evenodd\"\n       clip-rule=\"evenodd\"\n       d=\"m 15.583845,89.836687 c 26.706677,-0.012 53.561358,0.012 80.261913,-0.012 5.227722,-0.200021 10.153072,3.150016 12.029352,8.012059 1.25285,3.035014 0.82717,6.350554 0.88248,9.581564 0,25.1177 -0.006,50.25391 0.006,75.37211 0.0988,4.51504 -2.38226,9.26608 -6.46834,11.34809 -1.98768,1.06501 -4.203018,1.51501 -6.449764,1.50501 -26.533786,-0.006 -53.104711,-0.012 -79.638546,0.006 -1.790147,-0.006 -3.555111,-0.2 -5.24012,-0.83 -3.5427644,-1.26001 -6.2708004,-4.45504 -7.4188152,-7.97506 -0.8084066,-2.59501 -0.5432184,-5.68355 -0.5738344,-8.38906 0.0062,-23.6787 0.0062,-47.36339 0,-71.04159 0.04938,-3.51001 -0.4000063,-6.96205 1.1787809,-10.211567 1.9812614,-4.455042 6.5547547,-7.419056 11.4307197,-7.370056 z\"\n       fill=\"#3ae57f\"\n       id=\"path2511\"\n       style=\"stroke-width:13.1474\" />\n    <path\n       fill-rule=\"evenodd\"\n       clip-rule=\"evenodd\"\n       d=\"m 48.136231,103.36079 c -3.439553,0.01 -6.880141,0.02 -10.320582,-0.014 -0.261732,0.004 -0.522476,0.004 -0.787172,0.004 -0.989149,-0.001 -2.003978,-0.002 -2.953124,0.2 -1.610888,0.54501 -2.678556,2.56502 -2.154104,4.20002 0.429634,1.29503 1.506193,2.34504 2.907198,2.47004 1.784715,0.15 3.586223,0.15 5.386296,0.1 1.070137,-0.014 2.139781,-0.0294 3.20498,-0.006 -0.09876,0.15 -0.202472,0.35 -0.301238,0.5 -1.201003,1.98501 -2.342748,3.87502 -2.906212,6.18805 -1.000013,4.87004 -0.543216,9.93957 2.246449,14.16511 4.382282,7.31405 14.195845,10.68709 22.089926,7.31405 8.215024,-2.98001 13.381068,-12.5961 11.146766,-21.07166 -1.864221,-7.74056 -8.81997,-13.87461 -16.886794,-14.05361 -3.555602,-0.038 -7.112737,-0.0276 -10.670759,-0.018 z m 20.515238,15.15212 c -1.444465,-5.80055 -8.196604,-9.60607 -13.899644,-7.70306 -3.647456,1.16 -6.573222,3.99002 -7.566915,7.72806 -1.764961,5.78805 1.944223,12.4721 7.875561,13.8376 3.197081,0.53501 6.511545,0.40001 9.202643,-1.58 3.943757,-2.70002 5.672076,-7.69706 4.388207,-12.2811 z\"\n       fill=\"#ffffff\"\n       id=\"path2513\"\n       style=\"stroke-width:13.1474\" />\n    <path\n       fill-rule=\"evenodd\"\n       clip-rule=\"evenodd\"\n       d=\"m 37.803401,147.27565 c 12.949063,0.05 25.972101,-0.05 38.908866,0.0244 2.443984,-0.05 4.406973,2.59501 3.35165,4.87502 -0.753096,1.66003 -2.209411,2.25003 -3.956597,2.25003 -6.12887,0.1 -12.263866,-0.05 -18.392789,0.05 6.770807,6.72105 13.430452,13.55961 20.176567,20.29916 0.95063,1.03001 2.110645,2.14501 2.049411,3.67004 -0.05432,1.83501 -1.413353,3.22501 -3.221772,3.43002 -1.598539,0.2 -2.796086,-1.05501 -3.851409,-2.06502 -5.59815,-5.72654 -11.21467,-11.43459 -16.886894,-17.08714 -5.073399,5.59655 -10.177815,11.1751 -15.282179,16.74114 -1.382241,1.38501 -2.69732,3.03502 -4.882041,2.28001 -1.672615,-0.5 -1.968916,-1.96001 -2.759048,-3.30501 1.289893,-3.16504 3.72795,-5.00405 5.900474,-7.49958 4.005979,-4.44002 8.110232,-8.79056 12.066481,-13.2816 -1.074087,-1.03001 -2.10472,-2.36501 -3.401033,-3.10002 -3.839063,-0.45 -7.801437,0.2 -11.634378,-0.25 -2.388674,-0.45 -3.616839,-3.22003 -2.295832,-5.31304 0.938283,-1.57001 2.42571,-1.74001 4.110671,-1.73001 z\"\n       fill=\"#ffffff\"\n       id=\"path2515\"\n       style=\"stroke-width:13.1474\" />\n  </g>\n</svg>\n",
      "<?xml version=\"1.0\" encoding=\"UTF-8\" standalone=\"no\"?>\n<!-- Created with Inkscape (http://www.inkscape.org/) -->\n\n<svg\n   width=\"105.83353mm\"\n   height=\"105.83333mm\"\n   viewBox=\"0 0 105.83353 105.83333\"\n   version=\"1.1\"\n   id=\"svg2537\"\n   inkscape:version=\"1.1.1 (3bf5ae0d25, 2021-09-20)\"\n   sodipodi:docname=\"placeholder_avatar_1x1.svg\"\n   xmlns:inkscape=\"http://www.inkscape.org/namespaces/inkscape\"\n   xmlns:sodipodi=\"http://sodipodi.sourceforge.net/DTD/sodipodi-0.dtd\"\n   xmlns=\"http://www.w3.org/2000/svg\"\n   xmlns:svg=\"http://www.w3.org/2000/svg\">\n  <sodipodi:namedview\n     id=\"namedview2539\"\n     pagecolor=\"#ffffff\"\n     bordercolor=\"#666666\"\n     borderopacity=\"1.0\"\n     inkscape:pageshadow=\"2\"\n     inkscape:pageopacity=\"0.0\"\n     inkscape:pagecheckerboard=\"0\"\n     inkscape:document-units=\"mm\"\n     showgrid=\"false\"\n     showguides=\"false\"\n     inkscape:zoom=\"1.4159882\"\n     inkscape:cx=\"309.67772\"\n     inkscape:cy=\"253.88629\"\n     inkscape:window-width=\"1920\"\n     inkscape:window-height=\"1009\"\n     inkscape:window-x=\"1912\"\n     inkscape:window-y=\"-8\"\n     inkscape:window-maximized=\"1\"\n     inkscape:current-layer=\"layer1\" />\n  <defs\n     id=\"defs2534\" />\n  <g\n     inkscape:label=\"Layer 1\"\n     inkscape:groupmode=\"layer\"\n     id=\"layer1\"\n     transform=\"translate(-2.9508733,-89.816189)\">\n    <path\n       fill-rule=\"evenodd\"\n       clip-rule=\"evenodd\"\n       d=\"m 15.583845,89.836687 c 26.706677,-0.012 53.561358,0.012 80.261913,-0.012 5.227722,-0.200021 10.153072,3.150016 12.029352,8.012059 1.25285,3.035014 0.82717,6.350554 0.88248,9.581564 0,25.1177 -0.006,50.25391 0.006,75.37211 0.0988,4.51504 -2.38226,9.26608 -6.46834,11.34809 -1.98768,1.06501 -4.203018,1.51501 -6.449764,1.50501 -26.533786,-0.006 -53.104711,-0.012 -79.638546,0.006 -1.790147,-0.006 -3.555111,-0.2 -5.24012,-0.83 -3.5427644,-1.26001 -6.2708004,-4.45504 -7.4188152,-7.97506 -0.8084066,-2.59501 -0.5432184,-5.68355 -0.5738344,-8.38906 0.0062,-23.6787 0.0062,-47.36339 0,-71.04159 0.04938,-3.51001 -0.4000063,-6.96205 1.1787809,-10.211567 1.9812614,-4.455042 6.5547547,-7.419056 11.4307197,-7.370056 z\"\n       fill=\"#d12f50\"\n       id=\"path2511\"\n       style=\"stroke-width:13.1474\" />\n    <path\n       fill-rule=\"evenodd\"\n       clip-rule=\"evenodd\"\n       d=\"m 48.136231,103.36079 c -3.439553,0.01 -6.880141,0.02 -10.320582,-0.014 -0.261732,0.004 -0.522476,0.004 -0.787172,0.004 -0.989149,-0.001 -2.003978,-0.002 -2.953124,0.2 -1.610888,0.54501 -2.678556,2.56502 -2.154104,4.20002 0.429634,1.29503 1.506193,2.34504 2.907198,2.47004 1.784715,0.15 3.586223,0.15 5.386296,0.1 1.070137,-0.014 2.139781,-0.0294 3.20498,-0.006 -0.09876,0.15 -0.202472,0.35 -0.301238,0.5 -1.201003,1.98501 -2.342748,3.87502 -2.906212,6.18805 -1.000013,4.87004 -0.543216,9.93957 2.246449,14.16511 4.382282,7.31405 14.195845,10.68709 22.089926,7.31405 8.215024,-2.98001 13.381068,-12.5961 11.146766,-21.07166 -1.864221,-7.74056 -8.81997,-13.87461 -16.886794,-14.05361 -3.555602,-0.038 -7.112737,-0.0276 -10.670759,-0.018 z m 20.515238,15.15212 c -1.444465,-5.80055 -8.196604,-9.60607 -13.899644,-7.70306 -3.647456,1.16 -6.573222,3.99002 -7.566915,7.72806 -1.764961,5.78805 1.944223,12.4721 7.875561,13.8376 3.197081,0.53501 6.511545,0.40001 9.202643,-1.58 3.943757,-2.70002 5.672076,-7.69706 4.388207,-12.2811 z\"\n       fill=\"#ffffff\"\n       id=\"path2513\"\n       style=\"stroke-width:13.1474\" />\n    <path\n       fill-rule=\"evenodd\"\n       clip-rule=\"evenodd\"\n       d=\"m 37.803401,147.27565 c 12.949063,0.05 25.972101,-0.05 38.908866,0.0244 2.443984,-0.05 4.406973,2.59501 3.35165,4.87502 -0.753096,1.66003 -2.209411,2.25003 -3.956597,2.25003 -6.12887,0.1 -12.263866,-0.05 -18.392789,0.05 6.770807,6.72105 13.430452,13.55961 20.176567,20.29916 0.95063,1.03001 2.110645,2.14501 2.049411,3.67004 -0.05432,1.83501 -1.413353,3.22501 -3.221772,3.43002 -1.598539,0.2 -2.796086,-1.05501 -3.851409,-2.06502 -5.59815,-5.72654 -11.21467,-11.43459 -16.886894,-17.08714 -5.073399,5.59655 -10.177815,11.1751 -15.282179,16.74114 -1.382241,1.38501 -2.69732,3.03502 -4.882041,2.28001 -1.672615,-0.5 -1.968916,-1.96001 -2.759048,-3.30501 1.289893,-3.16504 3.72795,-5.00405 5.900474,-7.49958 4.005979,-4.44002 8.110232,-8.79056 12.066481,-13.2816 -1.074087,-1.03001 -2.10472,-2.36501 -3.401033,-3.10002 -3.839063,-0.45 -7.801437,0.2 -11.634378,-0.25 -2.388674,-0.45 -3.616839,-3.22003 -2.295832,-5.31304 0.938283,-1.57001 2.42571,-1.74001 4.110671,-1.73001 z\"\n       fill=\"#ffffff\"\n       id=\"path2515\"\n       style=\"stroke-width:13.1474\" />\n  </g>\n</svg>\n",
      "<?xml version=\"1.0\" encoding=\"UTF-8\" standalone=\"no\"?>\n<!-- Created with Inkscape (http://www.inkscape.org/) -->\n\n<svg\n   width=\"105.83353mm\"\n   height=\"105.83333mm\"\n   viewBox=\"0 0 105.83353 105.83333\"\n   version=\"1.1\"\n   id=\"svg2537\"\n   inkscape:version=\"1.1.1 (3bf5ae0d25, 2021-09-20)\"\n   sodipodi:docname=\"placeholder_avatar_1x1.svg\"\n   xmlns:inkscape=\"http://www.inkscape.org/namespaces/inkscape\"\n   xmlns:sodipodi=\"http://sodipodi.sourceforge.net/DTD/sodipodi-0.dtd\"\n   xmlns=\"http://www.w3.org/2000/svg\"\n   xmlns:svg=\"http://www.w3.org/2000/svg\">\n  <sodipodi:namedview\n     id=\"namedview2539\"\n     pagecolor=\"#ffffff\"\n     bordercolor=\"#666666\"\n     borderopacity=\"1.0\"\n     inkscape:pageshadow=\"2\"\n     inkscape:pageopacity=\"0.0\"\n     inkscape:pagecheckerboard=\"0\"\n     inkscape:document-units=\"mm\"\n     showgrid=\"false\"\n     showguides=\"false\"\n     inkscape:zoom=\"1.4159882\"\n     inkscape:cx=\"309.67772\"\n     inkscape:cy=\"253.88629\"\n     inkscape:window-width=\"1920\"\n     inkscape:window-height=\"1009\"\n     inkscape:window-x=\"1912\"\n     inkscape:window-y=\"-8\"\n     inkscape:window-maximized=\"1\"\n     inkscape:current-layer=\"layer1\" />\n  <defs\n     id=\"defs2534\" />\n  <g\n     inkscape:label=\"Layer 1\"\n     inkscape:groupmode=\"layer\"\n     id=\"layer1\"\n     transform=\"translate(-2.9508733,-89.816189)\">\n    <path\n       fill-rule=\"evenodd\"\n       clip-rule=\"evenodd\"\n       d=\"m 15.583845,89.836687 c 26.706677,-0.012 53.561358,0.012 80.261913,-0.012 5.227722,-0.200021 10.153072,3.150016 12.029352,8.012059 1.25285,3.035014 0.82717,6.350554 0.88248,9.581564 0,25.1177 -0.006,50.25391 0.006,75.37211 0.0988,4.51504 -2.38226,9.26608 -6.46834,11.34809 -1.98768,1.06501 -4.203018,1.51501 -6.449764,1.50501 -26.533786,-0.006 -53.104711,-0.012 -79.638546,0.006 -1.790147,-0.006 -3.555111,-0.2 -5.24012,-0.83 -3.5427644,-1.26001 -6.2708004,-4.45504 -7.4188152,-7.97506 -0.8084066,-2.59501 -0.5432184,-5.68355 -0.5738344,-8.38906 0.0062,-23.6787 0.0062,-47.36339 0,-71.04159 0.04938,-3.51001 -0.4000063,-6.96205 1.1787809,-10.211567 1.9812614,-4.455042 6.5547547,-7.419056 11.4307197,-7.370056 z\"\n       fill=\"#ffea00\"\n       id=\"path2511\"\n       style=\"stroke-width:13.1474\" />\n    <path\n       fill-rule=\"evenodd\"\n       clip-rule=\"evenodd\"\n       d=\"m 48.136231,103.36079 c -3.439553,0.01 -6.880141,0.02 -10.320582,-0.014 -0.261732,0.004 -0.522476,0.004 -0.787172,0.004 -0.989149,-0.001 -2.003978,-0.002 -2.953124,0.2 -1.610888,0.54501 -2.678556,2.56502 -2.154104,4.20002 0.429634,1.29503 1.506193,2.34504 2.907198,2.47004 1.784715,0.15 3.586223,0.15 5.386296,0.1 1.070137,-0.014 2.139781,-0.0294 3.20498,-0.006 -0.09876,0.15 -0.202472,0.35 -0.301238,0.5 -1.201003,1.98501 -2.342748,3.87502 -2.906212,6.18805 -1.000013,4.87004 -0.543216,9.93957 2.246449,14.16511 4.382282,7.31405 14.195845,10.68709 22.089926,7.31405 8.215024,-2.98001 13.381068,-12.5961 11.146766,-21.07166 -1.864221,-7.74056 -8.81997,-13.87461 -16.886794,-14.05361 -3.555602,-0.038 -7.112737,-0.0276 -10.670759,-0.018 z m 20.515238,15.15212 c -1.444465,-5.80055 -8.196604,-9.60607 -13.899644,-7.70306 -3.647456,1.16 -6.573222,3.99002 -7.566915,7.72806 -1.764961,5.78805 1.944223,12.4721 7.875561,13.8376 3.197081,0.53501 6.511545,0.40001 9.202643,-1.58 3.943757,-2.70002 5.672076,-7.69706 4.388207,-12.2811 z\"\n       fill=\"#ffffff\"\n       id=\"path2513\"\n       style=\"stroke-width:13.1474\" />\n    <path\n       fill-rule=\"evenodd\"\n       clip-rule=\"evenodd\"\n       d=\"m 37.803401,147.27565 c 12.949063,0.05 25.972101,-0.05 38.908866,0.0244 2.443984,-0.05 4.406973,2.59501 3.35165,4.87502 -0.753096,1.66003 -2.209411,2.25003 -3.956597,2.25003 -6.12887,0.1 -12.263866,-0.05 -18.392789,0.05 6.770807,6.72105 13.430452,13.55961 20.176567,20.29916 0.95063,1.03001 2.110645,2.14501 2.049411,3.67004 -0.05432,1.83501 -1.413353,3.22501 -3.221772,3.43002 -1.598539,0.2 -2.796086,-1.05501 -3.851409,-2.06502 -5.59815,-5.72654 -11.21467,-11.43459 -16.886894,-17.08714 -5.073399,5.59655 -10.177815,11.1751 -15.282179,16.74114 -1.382241,1.38501 -2.69732,3.03502 -4.882041,2.28001 -1.672615,-0.5 -1.968916,-1.96001 -2.759048,-3.30501 1.289893,-3.16504 3.72795,-5.00405 5.900474,-7.49958 4.005979,-4.44002 8.110232,-8.79056 12.066481,-13.2816 -1.074087,-1.03001 -2.10472,-2.36501 -3.401033,-3.10002 -3.839063,-0.45 -7.801437,0.2 -11.634378,-0.25 -2.388674,-0.45 -3.616839,-3.22003 -2.295832,-5.31304 0.938283,-1.57001 2.42571,-1.74001 4.110671,-1.73001 z\"\n       fill=\"#ffffff\"\n       id=\"path2515\"\n       style=\"stroke-width:13.1474\" />\n  </g>\n</svg>"
    ]
  ],
  "numDeployments": 1,
  "solcInputHash": "f46b35087b1ea196ad67b6b4f6882ca1",
  "bytecode": "0x60806040523480156200001157600080fd5b5060405162003294380380620032948339818101604052810190620000379190620004f9565b6040518060400160405280600c81526020017f504b204d554c54492d53564700000000000000000000000000000000000000008152506040518060400160405280600481526020017f504b4d53000000000000000000000000000000000000000000000000000000008152508160009080519060200190620000bb929190620000fa565b508060019080519060200190620000d4929190620000fa565b5050506000600681905550806007906004620000f29291906200018b565b5050620005af565b828054620001089062000579565b90600052602060002090601f0160209004810192826200012c576000855562000178565b82601f106200014757805160ff191683800117855562000178565b8280016001018555821562000178579182015b82811115620001775782518255916020019190600101906200015a565b5b509050620001879190620001e5565b5090565b8260048101928215620001d2579160200282015b82811115620001d1578251829080519060200190620001c0929190620000fa565b50916020019190600101906200019f565b5b509050620001e1919062000204565b5090565b5b8082111562000200576000816000905550600101620001e6565b5090565b5b808211156200022857600081816200021e91906200022c565b5060010162000205565b5090565b5080546200023a9062000579565b6000825580601f106200024e57506200026f565b601f0160209004906000526020600020908101906200026e9190620001e5565b5b50565b6000604051905090565b600080fd5b600080fd5b600080fd5b6000601f19601f8301169050919050565b7f4e487b7100000000000000000000000000000000000000000000000000000000600052604160045260246000fd5b620002d6826200028b565b810181811067ffffffffffffffff82111715620002f857620002f76200029c565b5b80604052505050565b60006200030d62000272565b90506200031b8282620002cb565b919050565b600067ffffffffffffffff8211156200033e576200033d6200029c565b5b602082029050919050565b600080fd5b600080fd5b600067ffffffffffffffff8211156200037157620003706200029c565b5b6200037c826200028b565b9050602081019050919050565b60005b83811015620003a95780820151818401526020810190506200038c565b83811115620003b9576000848401525b50505050565b6000620003d6620003d08462000353565b62000301565b905082815260208101848484011115620003f557620003f46200034e565b5b6200040284828562000389565b509392505050565b600082601f83011262000422576200042162000286565b5b815162000434848260208601620003bf565b91505092915050565b6000620004546200044e8462000320565b62000301565b9050806020840283018581111562000471576200047062000349565b5b835b81811015620004bf57805167ffffffffffffffff8111156200049a576200049962000286565b5b808601620004a989826200040a565b8552602085019450505060208101905062000473565b5050509392505050565b600082601f830112620004e157620004e062000286565b5b6004620004f08482856200043d565b91505092915050565b6000602082840312156200051257620005116200027c565b5b600082015167ffffffffffffffff81111562000533576200053262000281565b5b6200054184828501620004c9565b91505092915050565b7f4e487b7100000000000000000000000000000000000000000000000000000000600052602260045260246000fd5b600060028204905060018216806200059257607f821691505b60208210811415620005a957620005a86200054a565b5b50919050565b612cd580620005bf6000396000f3fe608060405234801561001057600080fd5b50600436106101005760003560e01c80636e02007d11610097578063b88d4fde11610066578063b88d4fde146102bf578063c2229fea146102db578063c87b56dd146102f9578063e985e9c51461032957610100565b80636e02007d1461023757806370a082311461025557806395d89b4114610285578063a22cb465146102a357610100565b806323b872dd116100d357806323b872dd1461019f57806330d871c6146101bb57806342842e0e146101eb5780636352211e1461020757610100565b806301ffc9a71461010557806306fdde0314610135578063081812fc14610153578063095ea7b314610183575b600080fd5b61011f600480360381019061011a9190611a9a565b610359565b60405161012c9190611ae2565b60405180910390f35b61013d61043b565b60405161014a9190611b96565b60405180910390f35b61016d60048036038101906101689190611bee565b6104cd565b60405161017a9190611c5c565b60405180910390f35b61019d60048036038101906101989190611ca3565b610513565b005b6101b960048036038101906101b49190611ce3565b61062b565b005b6101d560048036038101906101d09190611e6b565b61068b565b6040516101e29190611b96565b60405180910390f35b61020560048036038101906102009190611ce3565b610718565b005b610221600480360381019061021c9190611bee565b610738565b60405161022e9190611c5c565b60405180910390f35b61023f6107ea565b60405161024c9190611ec3565b60405180910390f35b61026f600480360381019061026a9190611ede565b6107f4565b60405161027c9190611ec3565b60405180910390f35b61028d6108ac565b60405161029a9190611b96565b60405180910390f35b6102bd60048036038101906102b89190611f37565b61093e565b005b6102d960048036038101906102d49190612018565b610954565b005b6102e36109b6565b6040516102f09190611ec3565b60405180910390f35b610313600480360381019061030e9190611bee565b610a02565b6040516103209190611b96565b60405180910390f35b610343600480360381019061033e919061209b565b610d26565b6040516103509190611ae2565b60405180910390f35b60007f80ac58cd000000000000000000000000000000000000000000000000000000007bffffffffffffffffffffffffffffffffffffffffffffffffffffffff1916827bffffffffffffffffffffffffffffffffffffffffffffffffffffffff1916148061042457507f5b5e139f000000000000000000000000000000000000000000000000000000007bffffffffffffffffffffffffffffffffffffffffffffffffffffffff1916827bffffffffffffffffffffffffffffffffffffffffffffffffffffffff1916145b80610434575061043382610dba565b5b9050919050565b60606000805461044a9061210a565b80601f01602080910402602001604051908101604052809291908181526020018280546104769061210a565b80156104c35780601f10610498576101008083540402835291602001916104c3565b820191906000526020600020905b8154815290600101906020018083116104a657829003601f168201915b5050505050905090565b60006104d882610e24565b6004600083815260200190815260200160002060009054906101000a900473ffffffffffffffffffffffffffffffffffffffff169050919050565b600061051e82610738565b90508073ffffffffffffffffffffffffffffffffffffffff168373ffffffffffffffffffffffffffffffffffffffff16141561058f576040517f08c379a0000000000000000000000000000000000000000000000000000000008152600401610586906121ae565b60405180910390fd5b8073ffffffffffffffffffffffffffffffffffffffff166105ae610e6f565b73ffffffffffffffffffffffffffffffffffffffff1614806105dd57506105dc816105d7610e6f565b610d26565b5b61061c576040517f08c379a000000000000000000000000000000000000000000000000000000000815260040161061390612240565b60405180910390fd5b6106268383610e77565b505050565b61063c610636610e6f565b82610f30565b61067b576040517f08c379a0000000000000000000000000000000000000000000000000000000008152600401610672906122d2565b60405180910390fd5b610686838383610fc5565b505050565b606060006106b7836040516020016106a3919061232e565b60405160208183030381529060405261122c565b90506040518060400160405280601a81526020017f646174613a696d6167652f7376672b786d6c3b6261736536342c00000000000081525081604051602001610701929190612345565b604051602081830303815290604052915050919050565b61073383838360405180602001604052806000815250610954565b505050565b6000806002600084815260200190815260200160002060009054906101000a900473ffffffffffffffffffffffffffffffffffffffff169050600073ffffffffffffffffffffffffffffffffffffffff168173ffffffffffffffffffffffffffffffffffffffff1614156107e1576040517f08c379a00000000000000000000000000000000000000000000000000000000081526004016107d8906123b5565b60405180910390fd5b80915050919050565b6000600654905090565b60008073ffffffffffffffffffffffffffffffffffffffff168273ffffffffffffffffffffffffffffffffffffffff161415610865576040517f08c379a000000000000000000000000000000000000000000000000000000000815260040161085c90612447565b60405180910390fd5b600360008373ffffffffffffffffffffffffffffffffffffffff1673ffffffffffffffffffffffffffffffffffffffff168152602001908152602001600020549050919050565b6060600180546108bb9061210a565b80601f01602080910402602001604051908101604052809291908181526020018280546108e79061210a565b80156109345780601f1061090957610100808354040283529160200191610934565b820191906000526020600020905b81548152906001019060200180831161091757829003601f168201915b5050505050905090565b610950610949610e6f565b83836113a5565b5050565b61096561095f610e6f565b83610f30565b6109a4576040517f08c379a000000000000000000000000000000000000000000000000000000000815260040161099b906122d2565b60405180910390fd5b6109b084848484611512565b50505050565b600080600090505b60048110156109f9576109d1338261156e565b60016006546109e09190612496565b60068190555080806109f1906124ec565b9150506109be565b50600654905090565b6060600060405180608001604052806040518060400160405280600781526020017f504b20426c75650000000000000000000000000000000000000000000000000081525081526020016040518060400160405280600881526020017f504b20477265656e00000000000000000000000000000000000000000000000081525081526020016040518060400160405280600681526020017f504b20526564000000000000000000000000000000000000000000000000000081525081526020016040518060400160405280600981526020017f504b2059656c6c6f7700000000000000000000000000000000000000000000008152508152509050600060405180608001604052806040518060400160405280600681526020017f383763656562000000000000000000000000000000000000000000000000000081525081526020016040518060400160405280600681526020017f336165353766000000000000000000000000000000000000000000000000000081525081526020016040518060400160405280600681526020017f643132663530000000000000000000000000000000000000000000000000000081525081526020016040518060400160405280600681526020017f66666561303000000000000000000000000000000000000000000000000000008152508152509050610bfe61158c565b610cfd838660048110610c1457610c13612535565b5b6020020151838760048110610c2c57610c2b612535565b5b6020020151610cd760078960048110610c4857610c47612535565b5b018054610c549061210a565b80601f0160208091040260200160405190810160405280929190818152602001828054610c809061210a565b8015610ccd5780601f10610ca257610100808354040283529160200191610ccd565b820191906000526020600020905b815481529060010190602001808311610cb057829003601f168201915b505050505061068b565b604051602001610ce99392919061272c565b60405160208183030381529060405261122c565b604051602001610d0e929190612345565b60405160208183030381529060405292505050919050565b6000600560008473ffffffffffffffffffffffffffffffffffffffff1673ffffffffffffffffffffffffffffffffffffffff16815260200190815260200160002060008373ffffffffffffffffffffffffffffffffffffffff1673ffffffffffffffffffffffffffffffffffffffff16815260200190815260200160002060009054906101000a900460ff16905092915050565b60007f01ffc9a7000000000000000000000000000000000000000000000000000000007bffffffffffffffffffffffffffffffffffffffffffffffffffffffff1916827bffffffffffffffffffffffffffffffffffffffffffffffffffffffff1916149050919050565b610e2d816115c9565b610e6c576040517f08c379a0000000000000000000000000000000000000000000000000000000008152600401610e63906123b5565b60405180910390fd5b50565b600033905090565b816004600083815260200190815260200160002060006101000a81548173ffffffffffffffffffffffffffffffffffffffff021916908373ffffffffffffffffffffffffffffffffffffffff160217905550808273ffffffffffffffffffffffffffffffffffffffff16610eea83610738565b73ffffffffffffffffffffffffffffffffffffffff167f8c5be1e5ebec7d5bd14f71427d1e84f3dd0314c0f7b2291e5b200ac8c7c3b92560405160405180910390a45050565b600080610f3c83610738565b90508073ffffffffffffffffffffffffffffffffffffffff168473ffffffffffffffffffffffffffffffffffffffff161480610f7e5750610f7d8185610d26565b5b80610fbc57508373ffffffffffffffffffffffffffffffffffffffff16610fa4846104cd565b73ffffffffffffffffffffffffffffffffffffffff16145b91505092915050565b8273ffffffffffffffffffffffffffffffffffffffff16610fe582610738565b73ffffffffffffffffffffffffffffffffffffffff161461103b576040517f08c379a000000000000000000000000000000000000000000000000000000000815260040161103290612806565b60405180910390fd5b600073ffffffffffffffffffffffffffffffffffffffff168273ffffffffffffffffffffffffffffffffffffffff1614156110ab576040517f08c379a00000000000000000000000000000000000000000000000000000000081526004016110a290612898565b60405180910390fd5b6110b6838383611635565b6110c1600082610e77565b6001600360008573ffffffffffffffffffffffffffffffffffffffff1673ffffffffffffffffffffffffffffffffffffffff168152602001908152602001600020600082825461111191906128b8565b925050819055506001600360008473ffffffffffffffffffffffffffffffffffffffff1673ffffffffffffffffffffffffffffffffffffffff16815260200190815260200160002060008282546111689190612496565b92505081905550816002600083815260200190815260200160002060006101000a81548173ffffffffffffffffffffffffffffffffffffffff021916908373ffffffffffffffffffffffffffffffffffffffff160217905550808273ffffffffffffffffffffffffffffffffffffffff168473ffffffffffffffffffffffffffffffffffffffff167fddf252ad1be2c89b69c2b068fc378daa952ba7f163c4a11628f55a4df523b3ef60405160405180910390a461122783838361163a565b505050565b606060008251141561124f576040518060200160405280600081525090506113a0565b6000604051806060016040528060408152602001612c60604091399050600060036002855161127e9190612496565b611288919061291b565b6004611294919061294c565b905060006020826112a59190612496565b67ffffffffffffffff8111156112be576112bd611d40565b5b6040519080825280601f01601f1916602001820160405280156112f05781602001600182028036833780820191505090505b509050818152600183018586518101602084015b8183101561135f576003830192508251603f8160121c168501518253600182019150603f81600c1c168501518253600182019150603f8160061c168501518253600182019150603f8116850151825360018201915050611304565b600389510660018114611379576002811461138957611394565b613d3d60f01b6002830352611394565b603d60f81b60018303525b50505050508093505050505b919050565b8173ffffffffffffffffffffffffffffffffffffffff168373ffffffffffffffffffffffffffffffffffffffff161415611414576040517f08c379a000000000000000000000000000000000000000000000000000000000815260040161140b906129f2565b60405180910390fd5b80600560008573ffffffffffffffffffffffffffffffffffffffff1673ffffffffffffffffffffffffffffffffffffffff16815260200190815260200160002060008473ffffffffffffffffffffffffffffffffffffffff1673ffffffffffffffffffffffffffffffffffffffff16815260200190815260200160002060006101000a81548160ff0219169083151502179055508173ffffffffffffffffffffffffffffffffffffffff168373ffffffffffffffffffffffffffffffffffffffff167f17307eab39ab6107e8899845ad3d59bd9653f200f220920489ca2b5937696c31836040516115059190611ae2565b60405180910390a3505050565b61151d848484610fc5565b6115298484848461163f565b611568576040517f08c379a000000000000000000000000000000000000000000000000000000000815260040161155f90612a84565b60405180910390fd5b50505050565b6115888282604051806020016040528060008152506117d6565b5050565b60606040518060400160405280601d81526020017f646174613a6170706c69636174696f6e2f6a736f6e3b6261736536342c000000815250905090565b60008073ffffffffffffffffffffffffffffffffffffffff166002600084815260200190815260200160002060009054906101000a900473ffffffffffffffffffffffffffffffffffffffff1673ffffffffffffffffffffffffffffffffffffffff1614159050919050565b505050565b505050565b60006116608473ffffffffffffffffffffffffffffffffffffffff16611831565b156117c9578373ffffffffffffffffffffffffffffffffffffffff1663150b7a02611689610e6f565b8786866040518563ffffffff1660e01b81526004016116ab9493929190612af9565b602060405180830381600087803b1580156116c557600080fd5b505af19250505080156116f657506040513d601f19601f820116820180604052508101906116f39190612b5a565b60015b611779573d8060008114611726576040519150601f19603f3d011682016040523d82523d6000602084013e61172b565b606091505b50600081511415611771576040517f08c379a000000000000000000000000000000000000000000000000000000000815260040161176890612a84565b60405180910390fd5b805181602001fd5b63150b7a0260e01b7bffffffffffffffffffffffffffffffffffffffffffffffffffffffff1916817bffffffffffffffffffffffffffffffffffffffffffffffffffffffff1916149150506117ce565b600190505b949350505050565b6117e08383611854565b6117ed600084848461163f565b61182c576040517f08c379a000000000000000000000000000000000000000000000000000000000815260040161182390612a84565b60405180910390fd5b505050565b6000808273ffffffffffffffffffffffffffffffffffffffff163b119050919050565b600073ffffffffffffffffffffffffffffffffffffffff168273ffffffffffffffffffffffffffffffffffffffff1614156118c4576040517f08c379a00000000000000000000000000000000000000000000000000000000081526004016118bb90612bd3565b60405180910390fd5b6118cd816115c9565b1561190d576040517f08c379a000000000000000000000000000000000000000000000000000000000815260040161190490612c3f565b60405180910390fd5b61191960008383611635565b6001600360008473ffffffffffffffffffffffffffffffffffffffff1673ffffffffffffffffffffffffffffffffffffffff16815260200190815260200160002060008282546119699190612496565b92505081905550816002600083815260200190815260200160002060006101000a81548173ffffffffffffffffffffffffffffffffffffffff021916908373ffffffffffffffffffffffffffffffffffffffff160217905550808273ffffffffffffffffffffffffffffffffffffffff16600073ffffffffffffffffffffffffffffffffffffffff167fddf252ad1be2c89b69c2b068fc378daa952ba7f163c4a11628f55a4df523b3ef60405160405180910390a4611a2a6000838361163a565b5050565b6000604051905090565b600080fd5b600080fd5b60007fffffffff0000000000000000000000000000000000000000000000000000000082169050919050565b611a7781611a42565b8114611a8257600080fd5b50565b600081359050611a9481611a6e565b92915050565b600060208284031215611ab057611aaf611a38565b5b6000611abe84828501611a85565b91505092915050565b60008115159050919050565b611adc81611ac7565b82525050565b6000602082019050611af76000830184611ad3565b92915050565b600081519050919050565b600082825260208201905092915050565b60005b83811015611b37578082015181840152602081019050611b1c565b83811115611b46576000848401525b50505050565b6000601f19601f8301169050919050565b6000611b6882611afd565b611b728185611b08565b9350611b82818560208601611b19565b611b8b81611b4c565b840191505092915050565b60006020820190508181036000830152611bb08184611b5d565b905092915050565b6000819050919050565b611bcb81611bb8565b8114611bd657600080fd5b50565b600081359050611be881611bc2565b92915050565b600060208284031215611c0457611c03611a38565b5b6000611c1284828501611bd9565b91505092915050565b600073ffffffffffffffffffffffffffffffffffffffff82169050919050565b6000611c4682611c1b565b9050919050565b611c5681611c3b565b82525050565b6000602082019050611c716000830184611c4d565b92915050565b611c8081611c3b565b8114611c8b57600080fd5b50565b600081359050611c9d81611c77565b92915050565b60008060408385031215611cba57611cb9611a38565b5b6000611cc885828601611c8e565b9250506020611cd985828601611bd9565b9150509250929050565b600080600060608486031215611cfc57611cfb611a38565b5b6000611d0a86828701611c8e565b9350506020611d1b86828701611c8e565b9250506040611d2c86828701611bd9565b9150509250925092565b600080fd5b600080fd5b7f4e487b7100000000000000000000000000000000000000000000000000000000600052604160045260246000fd5b611d7882611b4c565b810181811067ffffffffffffffff82111715611d9757611d96611d40565b5b80604052505050565b6000611daa611a2e565b9050611db68282611d6f565b919050565b600067ffffffffffffffff821115611dd657611dd5611d40565b5b611ddf82611b4c565b9050602081019050919050565b82818337600083830152505050565b6000611e0e611e0984611dbb565b611da0565b905082815260208101848484011115611e2a57611e29611d3b565b5b611e35848285611dec565b509392505050565b600082601f830112611e5257611e51611d36565b5b8135611e62848260208601611dfb565b91505092915050565b600060208284031215611e8157611e80611a38565b5b600082013567ffffffffffffffff811115611e9f57611e9e611a3d565b5b611eab84828501611e3d565b91505092915050565b611ebd81611bb8565b82525050565b6000602082019050611ed86000830184611eb4565b92915050565b600060208284031215611ef457611ef3611a38565b5b6000611f0284828501611c8e565b91505092915050565b611f1481611ac7565b8114611f1f57600080fd5b50565b600081359050611f3181611f0b565b92915050565b60008060408385031215611f4e57611f4d611a38565b5b6000611f5c85828601611c8e565b9250506020611f6d85828601611f22565b9150509250929050565b600067ffffffffffffffff821115611f9257611f91611d40565b5b611f9b82611b4c565b9050602081019050919050565b6000611fbb611fb684611f77565b611da0565b905082815260208101848484011115611fd757611fd6611d3b565b5b611fe2848285611dec565b509392505050565b600082601f830112611fff57611ffe611d36565b5b813561200f848260208601611fa8565b91505092915050565b6000806000806080858703121561203257612031611a38565b5b600061204087828801611c8e565b945050602061205187828801611c8e565b935050604061206287828801611bd9565b925050606085013567ffffffffffffffff81111561208357612082611a3d565b5b61208f87828801611fea565b91505092959194509250565b600080604083850312156120b2576120b1611a38565b5b60006120c085828601611c8e565b92505060206120d185828601611c8e565b9150509250929050565b7f4e487b7100000000000000000000000000000000000000000000000000000000600052602260045260246000fd5b6000600282049050600182168061212257607f821691505b60208210811415612136576121356120db565b5b50919050565b7f4552433732313a20617070726f76616c20746f2063757272656e74206f776e6560008201527f7200000000000000000000000000000000000000000000000000000000000000602082015250565b6000612198602183611b08565b91506121a38261213c565b604082019050919050565b600060208201905081810360008301526121c78161218b565b9050919050565b7f4552433732313a20617070726f76652063616c6c6572206973206e6f7420746f60008201527f6b656e206f776e6572206e6f7220617070726f76656420666f7220616c6c0000602082015250565b600061222a603e83611b08565b9150612235826121ce565b604082019050919050565b600060208201905081810360008301526122598161221d565b9050919050565b7f4552433732313a2063616c6c6572206973206e6f7420746f6b656e206f776e6560008201527f72206e6f7220617070726f766564000000000000000000000000000000000000602082015250565b60006122bc602e83611b08565b91506122c782612260565b604082019050919050565b600060208201905081810360008301526122eb816122af565b9050919050565b600081905092915050565b600061230882611afd565b61231281856122f2565b9350612322818560208601611b19565b80840191505092915050565b600061233a82846122fd565b915081905092915050565b600061235182856122fd565b915061235d82846122fd565b91508190509392505050565b7f4552433732313a20696e76616c696420746f6b656e2049440000000000000000600082015250565b600061239f601883611b08565b91506123aa82612369565b602082019050919050565b600060208201905081810360008301526123ce81612392565b9050919050565b7f4552433732313a2061646472657373207a65726f206973206e6f74206120766160008201527f6c6964206f776e65720000000000000000000000000000000000000000000000602082015250565b6000612431602983611b08565b915061243c826123d5565b604082019050919050565b6000602082019050818103600083015261246081612424565b9050919050565b7f4e487b7100000000000000000000000000000000000000000000000000000000600052601160045260246000fd5b60006124a182611bb8565b91506124ac83611bb8565b9250827fffffffffffffffffffffffffffffffffffffffffffffffffffffffffffffffff038211156124e1576124e0612467565b5b828201905092915050565b60006124f782611bb8565b91507fffffffffffffffffffffffffffffffffffffffffffffffffffffffffffffffff82141561252a57612529612467565b5b600182019050919050565b7f4e487b7100000000000000000000000000000000000000000000000000000000600052603260045260246000fd5b7f7b226e616d65223a202200000000000000000000000000000000000000000000600082015250565b600061259a600a836122f2565b91506125a582612564565b600a82019050919050565b7f222c20226465736372697074696f6e223a2254657374696e6720535647204e4660008201527f5420436f6e747261637473222c20000000000000000000000000000000000000602082015250565b600061260c602e836122f2565b9150612617826125b0565b602e82019050919050565b7f2261747472696275746573223a205b7b2274726169745f74797065223a20226260008201527f67436f6c6f72486578222c202276616c7565223a202200000000000000000000602082015250565b600061267e6036836122f2565b915061268982612622565b603682019050919050565b7f20227d5d2c2022696d616765223a220000000000000000000000000000000000600082015250565b60006126ca600f836122f2565b91506126d582612694565b600f82019050919050565b7f227d000000000000000000000000000000000000000000000000000000000000600082015250565b60006127166002836122f2565b9150612721826126e0565b600282019050919050565b60006127378261258d565b915061274382866122fd565b915061274e826125ff565b915061275982612671565b915061276582856122fd565b9150612770826126bd565b915061277c82846122fd565b915061278782612709565b9150819050949350505050565b7f4552433732313a207472616e736665722066726f6d20696e636f72726563742060008201527f6f776e6572000000000000000000000000000000000000000000000000000000602082015250565b60006127f0602583611b08565b91506127fb82612794565b604082019050919050565b6000602082019050818103600083015261281f816127e3565b9050919050565b7f4552433732313a207472616e7366657220746f20746865207a65726f2061646460008201527f7265737300000000000000000000000000000000000000000000000000000000602082015250565b6000612882602483611b08565b915061288d82612826565b604082019050919050565b600060208201905081810360008301526128b181612875565b9050919050565b60006128c382611bb8565b91506128ce83611bb8565b9250828210156128e1576128e0612467565b5b828203905092915050565b7f4e487b7100000000000000000000000000000000000000000000000000000000600052601260045260246000fd5b600061292682611bb8565b915061293183611bb8565b925082612941576129406128ec565b5b828204905092915050565b600061295782611bb8565b915061296283611bb8565b9250817fffffffffffffffffffffffffffffffffffffffffffffffffffffffffffffffff048311821515161561299b5761299a612467565b5b828202905092915050565b7f4552433732313a20617070726f766520746f2063616c6c657200000000000000600082015250565b60006129dc601983611b08565b91506129e7826129a6565b602082019050919050565b60006020820190508181036000830152612a0b816129cf565b9050919050565b7f4552433732313a207472616e7366657220746f206e6f6e20455243373231526560008201527f63656976657220696d706c656d656e7465720000000000000000000000000000602082015250565b6000612a6e603283611b08565b9150612a7982612a12565b604082019050919050565b60006020820190508181036000830152612a9d81612a61565b9050919050565b600081519050919050565b600082825260208201905092915050565b6000612acb82612aa4565b612ad58185612aaf565b9350612ae5818560208601611b19565b612aee81611b4c565b840191505092915050565b6000608082019050612b0e6000830187611c4d565b612b1b6020830186611c4d565b612b286040830185611eb4565b8181036060830152612b3a8184612ac0565b905095945050505050565b600081519050612b5481611a6e565b92915050565b600060208284031215612b7057612b6f611a38565b5b6000612b7e84828501612b45565b91505092915050565b7f4552433732313a206d696e7420746f20746865207a65726f2061646472657373600082015250565b6000612bbd602083611b08565b9150612bc882612b87565b602082019050919050565b60006020820190508181036000830152612bec81612bb0565b9050919050565b7f4552433732313a20746f6b656e20616c7265616479206d696e74656400000000600082015250565b6000612c29601c83611b08565b9150612c3482612bf3565b602082019050919050565b60006020820190508181036000830152612c5881612c1c565b905091905056fe4142434445464748494a4b4c4d4e4f505152535455565758595a6162636465666768696a6b6c6d6e6f707172737475767778797a303132333435363738392b2fa2646970667358221220947b33a09b3458b005500dc9c0a2c674e1bd21eab4f6e79d7ff7ad402f92b71364736f6c63430008080033",
  "devdoc": {
    "kind": "dev",
    "methods": {
      "approve(address,uint256)": {
        "details": "See {IERC721-approve}."
      },
      "balanceOf(address)": {
        "details": "See {IERC721-balanceOf}."
      },
      "getApproved(uint256)": {
        "details": "See {IERC721-getApproved}."
      },
      "isApprovedForAll(address,address)": {
        "details": "See {IERC721-isApprovedForAll}."
      },
      "name()": {
        "details": "See {IERC721Metadata-name}."
      },
      "ownerOf(uint256)": {
        "details": "See {IERC721-ownerOf}."
      },
      "safeTransferFrom(address,address,uint256)": {
        "details": "See {IERC721-safeTransferFrom}."
      },
      "safeTransferFrom(address,address,uint256,bytes)": {
        "details": "See {IERC721-safeTransferFrom}."
      },
      "setApprovalForAll(address,bool)": {
        "details": "See {IERC721-setApprovalForAll}."
      },
      "supportsInterface(bytes4)": {
        "details": "See {IERC165-supportsInterface}."
      },
      "symbol()": {
        "details": "See {IERC721Metadata-symbol}."
      },
      "transferFrom(address,address,uint256)": {
        "details": "See {IERC721-transferFrom}."
      }
    },
    "version": 1
  },
  "userdoc": {
    "kind": "user",
    "methods": {},
    "version": 1
  },
  "storageLayout": {
    "storage": [
      {
        "astId": 25,
        "contract": "contracts/PkMultipleSvgNft.sol:PkMultipleSvgNft",
        "label": "_name",
        "offset": 0,
        "slot": "0",
        "type": "t_string_storage"
      },
      {
        "astId": 27,
        "contract": "contracts/PkMultipleSvgNft.sol:PkMultipleSvgNft",
        "label": "_symbol",
        "offset": 0,
        "slot": "1",
        "type": "t_string_storage"
      },
      {
        "astId": 31,
        "contract": "contracts/PkMultipleSvgNft.sol:PkMultipleSvgNft",
        "label": "_owners",
        "offset": 0,
        "slot": "2",
        "type": "t_mapping(t_uint256,t_address)"
      },
      {
        "astId": 35,
        "contract": "contracts/PkMultipleSvgNft.sol:PkMultipleSvgNft",
        "label": "_balances",
        "offset": 0,
        "slot": "3",
        "type": "t_mapping(t_address,t_uint256)"
      },
      {
        "astId": 39,
        "contract": "contracts/PkMultipleSvgNft.sol:PkMultipleSvgNft",
        "label": "_tokenApprovals",
        "offset": 0,
        "slot": "4",
        "type": "t_mapping(t_uint256,t_address)"
      },
      {
        "astId": 45,
        "contract": "contracts/PkMultipleSvgNft.sol:PkMultipleSvgNft",
        "label": "_operatorApprovals",
        "offset": 0,
        "slot": "5",
        "type": "t_mapping(t_address,t_mapping(t_address,t_bool))"
      },
      {
        "astId": 1729,
        "contract": "contracts/PkMultipleSvgNft.sol:PkMultipleSvgNft",
        "label": "s_tokenCounter",
        "offset": 0,
        "slot": "6",
        "type": "t_uint256"
      },
      {
        "astId": 1733,
        "contract": "contracts/PkMultipleSvgNft.sol:PkMultipleSvgNft",
        "label": "s_tokenUris",
        "offset": 0,
        "slot": "7",
        "type": "t_array(t_string_storage)4_storage"
      }
    ],
    "types": {
      "t_address": {
        "encoding": "inplace",
        "label": "address",
        "numberOfBytes": "20"
      },
      "t_array(t_string_storage)4_storage": {
        "base": "t_string_storage",
        "encoding": "inplace",
        "label": "string[4]",
        "numberOfBytes": "128"
      },
      "t_bool": {
        "encoding": "inplace",
        "label": "bool",
        "numberOfBytes": "1"
      },
      "t_mapping(t_address,t_bool)": {
        "encoding": "mapping",
        "key": "t_address",
        "label": "mapping(address => bool)",
        "numberOfBytes": "32",
        "value": "t_bool"
      },
      "t_mapping(t_address,t_mapping(t_address,t_bool))": {
        "encoding": "mapping",
        "key": "t_address",
        "label": "mapping(address => mapping(address => bool))",
        "numberOfBytes": "32",
        "value": "t_mapping(t_address,t_bool)"
      },
      "t_mapping(t_address,t_uint256)": {
        "encoding": "mapping",
        "key": "t_address",
        "label": "mapping(address => uint256)",
        "numberOfBytes": "32",
        "value": "t_uint256"
      },
      "t_mapping(t_uint256,t_address)": {
        "encoding": "mapping",
        "key": "t_uint256",
        "label": "mapping(uint256 => address)",
        "numberOfBytes": "32",
        "value": "t_address"
      },
      "t_string_storage": {
        "encoding": "bytes",
        "label": "string",
        "numberOfBytes": "32"
      },
      "t_uint256": {
        "encoding": "inplace",
        "label": "uint256",
        "numberOfBytes": "32"
      }
    }
  }
}