{
  "address": "0x5B1Ab9aA437D746E85c0ba5095B86C0eE28b1fe0",
  "abi": [
    {
      "inputs": [
        {
          "internalType": "string",
          "name": "imageUri",
          "type": "string"
        }
      ],
      "stateMutability": "nonpayable",
      "type": "constructor"
    },
    {
      "anonymous": false,
      "inputs": [
        {
          "indexed": true,
          "internalType": "address",
          "name": "owner",
          "type": "address"
        },
        {
          "indexed": true,
          "internalType": "address",
          "name": "approved",
          "type": "address"
        },
        {
          "indexed": true,
          "internalType": "uint256",
          "name": "tokenId",
          "type": "uint256"
        }
      ],
      "name": "Approval",
      "type": "event"
    },
    {
      "anonymous": false,
      "inputs": [
        {
          "indexed": true,
          "internalType": "address",
          "name": "owner",
          "type": "address"
        },
        {
          "indexed": true,
          "internalType": "address",
          "name": "operator",
          "type": "address"
        },
        {
          "indexed": false,
          "internalType": "bool",
          "name": "approved",
          "type": "bool"
        }
      ],
      "name": "ApprovalForAll",
      "type": "event"
    },
    {
      "anonymous": false,
      "inputs": [
        {
          "indexed": true,
          "internalType": "address",
          "name": "from",
          "type": "address"
        },
        {
          "indexed": true,
          "internalType": "address",
          "name": "to",
          "type": "address"
        },
        {
          "indexed": true,
          "internalType": "uint256",
          "name": "tokenId",
          "type": "uint256"
        }
      ],
      "name": "Transfer",
      "type": "event"
    },
    {
      "inputs": [
        {
          "internalType": "address",
          "name": "to",
          "type": "address"
        },
        {
          "internalType": "uint256",
          "name": "tokenId",
          "type": "uint256"
        }
      ],
      "name": "approve",
      "outputs": [],
      "stateMutability": "nonpayable",
      "type": "function"
    },
    {
      "inputs": [
        {
          "internalType": "address",
          "name": "owner",
          "type": "address"
        }
      ],
      "name": "balanceOf",
      "outputs": [
        {
          "internalType": "uint256",
          "name": "",
          "type": "uint256"
        }
      ],
      "stateMutability": "view",
      "type": "function"
    },
    {
      "inputs": [
        {
          "internalType": "uint256",
          "name": "tokenId",
          "type": "uint256"
        }
      ],
      "name": "getApproved",
      "outputs": [
        {
          "internalType": "address",
          "name": "",
          "type": "address"
        }
      ],
      "stateMutability": "view",
      "type": "function"
    },
    {
      "inputs": [],
      "name": "getTokenCounter",
      "outputs": [
        {
          "internalType": "uint256",
          "name": "",
          "type": "uint256"
        }
      ],
      "stateMutability": "view",
      "type": "function"
    },
    {
      "inputs": [
        {
          "internalType": "address",
          "name": "owner",
          "type": "address"
        },
        {
          "internalType": "address",
          "name": "operator",
          "type": "address"
        }
      ],
      "name": "isApprovedForAll",
      "outputs": [
        {
          "internalType": "bool",
          "name": "",
          "type": "bool"
        }
      ],
      "stateMutability": "view",
      "type": "function"
    },
    {
      "inputs": [],
      "name": "mintNft",
      "outputs": [
        {
          "internalType": "uint256",
          "name": "",
          "type": "uint256"
        }
      ],
      "stateMutability": "nonpayable",
      "type": "function"
    },
    {
      "inputs": [],
      "name": "name",
      "outputs": [
        {
          "internalType": "string",
          "name": "",
          "type": "string"
        }
      ],
      "stateMutability": "view",
      "type": "function"
    },
    {
      "inputs": [
        {
          "internalType": "uint256",
          "name": "tokenId",
          "type": "uint256"
        }
      ],
      "name": "ownerOf",
      "outputs": [
        {
          "internalType": "address",
          "name": "",
          "type": "address"
        }
      ],
      "stateMutability": "view",
      "type": "function"
    },
    {
      "inputs": [
        {
          "internalType": "address",
          "name": "from",
          "type": "address"
        },
        {
          "internalType": "address",
          "name": "to",
          "type": "address"
        },
        {
          "internalType": "uint256",
          "name": "tokenId",
          "type": "uint256"
        }
      ],
      "name": "safeTransferFrom",
      "outputs": [],
      "stateMutability": "nonpayable",
      "type": "function"
    },
    {
      "inputs": [
        {
          "internalType": "address",
          "name": "from",
          "type": "address"
        },
        {
          "internalType": "address",
          "name": "to",
          "type": "address"
        },
        {
          "internalType": "uint256",
          "name": "tokenId",
          "type": "uint256"
        },
        {
          "internalType": "bytes",
          "name": "data",
          "type": "bytes"
        }
      ],
      "name": "safeTransferFrom",
      "outputs": [],
      "stateMutability": "nonpayable",
      "type": "function"
    },
    {
      "inputs": [
        {
          "internalType": "address",
          "name": "operator",
          "type": "address"
        },
        {
          "internalType": "bool",
          "name": "approved",
          "type": "bool"
        }
      ],
      "name": "setApprovalForAll",
      "outputs": [],
      "stateMutability": "nonpayable",
      "type": "function"
    },
    {
      "inputs": [
        {
          "internalType": "bytes4",
          "name": "interfaceId",
          "type": "bytes4"
        }
      ],
      "name": "supportsInterface",
      "outputs": [
        {
          "internalType": "bool",
          "name": "",
          "type": "bool"
        }
      ],
      "stateMutability": "view",
      "type": "function"
    },
    {
      "inputs": [],
      "name": "symbol",
      "outputs": [
        {
          "internalType": "string",
          "name": "",
          "type": "string"
        }
      ],
      "stateMutability": "view",
      "type": "function"
    },
    {
      "inputs": [
        {
          "internalType": "uint256",
          "name": "",
          "type": "uint256"
        }
      ],
      "name": "tokenURI",
      "outputs": [
        {
          "internalType": "string",
          "name": "",
          "type": "string"
        }
      ],
      "stateMutability": "view",
      "type": "function"
    },
    {
      "inputs": [
        {
          "internalType": "address",
          "name": "from",
          "type": "address"
        },
        {
          "internalType": "address",
          "name": "to",
          "type": "address"
        },
        {
          "internalType": "uint256",
          "name": "tokenId",
          "type": "uint256"
        }
      ],
      "name": "transferFrom",
      "outputs": [],
      "stateMutability": "nonpayable",
      "type": "function"
    }
  ],
  "transactionHash": "0x8c48bd11539a1883fca6ab53739f9b4a6dd7718a0b571cfd421f460b36a96841",
  "args": [
    "<?xml version=\"1.0\" encoding=\"UTF-8\" standalone=\"no\"?>\n<!-- Created with Inkscape (http://www.inkscape.org/) -->\n\n<svg\n   width=\"105.83353mm\"\n   height=\"105.83333mm\"\n   viewBox=\"0 0 105.83353 105.83333\"\n   version=\"1.1\"\n   id=\"svg2537\"\n   inkscape:version=\"1.1.1 (3bf5ae0d25, 2021-09-20)\"\n   sodipodi:docname=\"placeholder_avatar_1x1.svg\"\n   xmlns:inkscape=\"http://www.inkscape.org/namespaces/inkscape\"\n   xmlns:sodipodi=\"http://sodipodi.sourceforge.net/DTD/sodipodi-0.dtd\"\n   xmlns=\"http://www.w3.org/2000/svg\"\n   xmlns:svg=\"http://www.w3.org/2000/svg\">\n  <sodipodi:namedview\n     id=\"namedview2539\"\n     pagecolor=\"#ffffff\"\n     bordercolor=\"#666666\"\n     borderopacity=\"1.0\"\n     inkscape:pageshadow=\"2\"\n     inkscape:pageopacity=\"0.0\"\n     inkscape:pagecheckerboard=\"0\"\n     inkscape:document-units=\"mm\"\n     showgrid=\"false\"\n     showguides=\"false\"\n     inkscape:zoom=\"1.4159882\"\n     inkscape:cx=\"309.67772\"\n     inkscape:cy=\"253.88629\"\n     inkscape:window-width=\"1920\"\n     inkscape:window-height=\"1009\"\n     inkscape:window-x=\"1912\"\n     inkscape:window-y=\"-8\"\n     inkscape:window-maximized=\"1\"\n     inkscape:current-layer=\"layer1\" />\n  <defs\n     id=\"defs2534\" />\n  <g\n     inkscape:label=\"Layer 1\"\n     inkscape:groupmode=\"layer\"\n     id=\"layer1\"\n     transform=\"translate(-2.9508733,-89.816189)\">\n    <path\n       fill-rule=\"evenodd\"\n       clip-rule=\"evenodd\"\n       d=\"m 15.583845,89.836687 c 26.706677,-0.012 53.561358,0.012 80.261913,-0.012 5.227722,-0.200021 10.153072,3.150016 12.029352,8.012059 1.25285,3.035014 0.82717,6.350554 0.88248,9.581564 0,25.1177 -0.006,50.25391 0.006,75.37211 0.0988,4.51504 -2.38226,9.26608 -6.46834,11.34809 -1.98768,1.06501 -4.203018,1.51501 -6.449764,1.50501 -26.533786,-0.006 -53.104711,-0.012 -79.638546,0.006 -1.790147,-0.006 -3.555111,-0.2 -5.24012,-0.83 -3.5427644,-1.26001 -6.2708004,-4.45504 -7.4188152,-7.97506 -0.8084066,-2.59501 -0.5432184,-5.68355 -0.5738344,-8.38906 0.0062,-23.6787 0.0062,-47.36339 0,-71.04159 0.04938,-3.51001 -0.4000063,-6.96205 1.1787809,-10.211567 1.9812614,-4.455042 6.5547547,-7.419056 11.4307197,-7.370056 z\"\n       fill=\"#d12f50\"\n       id=\"path2511\"\n       style=\"stroke-width:13.1474\" />\n    <path\n       fill-rule=\"evenodd\"\n       clip-rule=\"evenodd\"\n       d=\"m 48.136231,103.36079 c -3.439553,0.01 -6.880141,0.02 -10.320582,-0.014 -0.261732,0.004 -0.522476,0.004 -0.787172,0.004 -0.989149,-0.001 -2.003978,-0.002 -2.953124,0.2 -1.610888,0.54501 -2.678556,2.56502 -2.154104,4.20002 0.429634,1.29503 1.506193,2.34504 2.907198,2.47004 1.784715,0.15 3.586223,0.15 5.386296,0.1 1.070137,-0.014 2.139781,-0.0294 3.20498,-0.006 -0.09876,0.15 -0.202472,0.35 -0.301238,0.5 -1.201003,1.98501 -2.342748,3.87502 -2.906212,6.18805 -1.000013,4.87004 -0.543216,9.93957 2.246449,14.16511 4.382282,7.31405 14.195845,10.68709 22.089926,7.31405 8.215024,-2.98001 13.381068,-12.5961 11.146766,-21.07166 -1.864221,-7.74056 -8.81997,-13.87461 -16.886794,-14.05361 -3.555602,-0.038 -7.112737,-0.0276 -10.670759,-0.018 z m 20.515238,15.15212 c -1.444465,-5.80055 -8.196604,-9.60607 -13.899644,-7.70306 -3.647456,1.16 -6.573222,3.99002 -7.566915,7.72806 -1.764961,5.78805 1.944223,12.4721 7.875561,13.8376 3.197081,0.53501 6.511545,0.40001 9.202643,-1.58 3.943757,-2.70002 5.672076,-7.69706 4.388207,-12.2811 z\"\n       fill=\"#ffffff\"\n       id=\"path2513\"\n       style=\"stroke-width:13.1474\" />\n    <path\n       fill-rule=\"evenodd\"\n       clip-rule=\"evenodd\"\n       d=\"m 37.803401,147.27565 c 12.949063,0.05 25.972101,-0.05 38.908866,0.0244 2.443984,-0.05 4.406973,2.59501 3.35165,4.87502 -0.753096,1.66003 -2.209411,2.25003 -3.956597,2.25003 -6.12887,0.1 -12.263866,-0.05 -18.392789,0.05 6.770807,6.72105 13.430452,13.55961 20.176567,20.29916 0.95063,1.03001 2.110645,2.14501 2.049411,3.67004 -0.05432,1.83501 -1.413353,3.22501 -3.221772,3.43002 -1.598539,0.2 -2.796086,-1.05501 -3.851409,-2.06502 -5.59815,-5.72654 -11.21467,-11.43459 -16.886894,-17.08714 -5.073399,5.59655 -10.177815,11.1751 -15.282179,16.74114 -1.382241,1.38501 -2.69732,3.03502 -4.882041,2.28001 -1.672615,-0.5 -1.968916,-1.96001 -2.759048,-3.30501 1.289893,-3.16504 3.72795,-5.00405 5.900474,-7.49958 4.005979,-4.44002 8.110232,-8.79056 12.066481,-13.2816 -1.074087,-1.03001 -2.10472,-2.36501 -3.401033,-3.10002 -3.839063,-0.45 -7.801437,0.2 -11.634378,-0.25 -2.388674,-0.45 -3.616839,-3.22003 -2.295832,-5.31304 0.938283,-1.57001 2.42571,-1.74001 4.110671,-1.73001 z\"\n       fill=\"#ffffff\"\n       id=\"path2515\"\n       style=\"stroke-width:13.1474\" />\n  </g>\n</svg>\n"
  ],
  "numDeployments": 1,
  "solcInputHash": "634b2a992a8a0ed1cb8f6e0c1033710d",
  "bytecode": "0x60806040523480156200001157600080fd5b50604051620026b5380380620026b583398181016040528101906200003791906200034c565b6040518060400160405280600b81526020017f504b204c6f676f204e46540000000000000000000000000000000000000000008152506040518060400160405280600381526020017f504b4c00000000000000000000000000000000000000000000000000000000008152508160009080519060200190620000bb929190620000ff565b508060019080519060200190620000d4929190620000ff565b50505060006006819055508060079080519060200190620000f7929190620000ff565b505062000402565b8280546200010d90620003cc565b90600052602060002090601f0160209004810192826200013157600085556200017d565b82601f106200014c57805160ff19168380011785556200017d565b828001600101855582156200017d579182015b828111156200017c5782518255916020019190600101906200015f565b5b5090506200018c919062000190565b5090565b5b80821115620001ab57600081600090555060010162000191565b5090565b6000604051905090565b600080fd5b600080fd5b600080fd5b600080fd5b6000601f19601f8301169050919050565b7f4e487b7100000000000000000000000000000000000000000000000000000000600052604160045260246000fd5b6200021882620001cd565b810181811067ffffffffffffffff821117156200023a5762000239620001de565b5b80604052505050565b60006200024f620001af565b90506200025d82826200020d565b919050565b600067ffffffffffffffff82111562000280576200027f620001de565b5b6200028b82620001cd565b9050602081019050919050565b60005b83811015620002b85780820151818401526020810190506200029b565b83811115620002c8576000848401525b50505050565b6000620002e5620002df8462000262565b62000243565b905082815260208101848484011115620003045762000303620001c8565b5b6200031184828562000298565b509392505050565b600082601f830112620003315762000330620001c3565b5b815162000343848260208601620002ce565b91505092915050565b600060208284031215620003655762000364620001b9565b5b600082015167ffffffffffffffff811115620003865762000385620001be565b5b620003948482850162000319565b91505092915050565b7f4e487b7100000000000000000000000000000000000000000000000000000000600052602260045260246000fd5b60006002820490506001821680620003e557607f821691505b60208210811415620003fc57620003fb6200039d565b5b50919050565b6122a380620004126000396000f3fe608060405234801561001057600080fd5b50600436106100f55760003560e01c80636e02007d11610097578063b88d4fde11610066578063b88d4fde14610284578063c2229fea146102a0578063c87b56dd146102be578063e985e9c5146102ee576100f5565b80636e02007d146101fc57806370a082311461021a57806395d89b411461024a578063a22cb46514610268576100f5565b8063095ea7b3116100d3578063095ea7b31461017857806323b872dd1461019457806342842e0e146101b05780636352211e146101cc576100f5565b806301ffc9a7146100fa57806306fdde031461012a578063081812fc14610148575b600080fd5b610114600480360381019061010f919061156b565b61031e565b60405161012191906115b3565b60405180910390f35b610132610400565b60405161013f9190611667565b60405180910390f35b610162600480360381019061015d91906116bf565b610492565b60405161016f919061172d565b60405180910390f35b610192600480360381019061018d9190611774565b6104d8565b005b6101ae60048036038101906101a991906117b4565b6105f0565b005b6101ca60048036038101906101c591906117b4565b610650565b005b6101e660048036038101906101e191906116bf565b610670565b6040516101f3919061172d565b60405180910390f35b610204610722565b6040516102119190611816565b60405180910390f35b610234600480360381019061022f9190611831565b61072c565b6040516102419190611816565b60405180910390f35b6102526107e4565b60405161025f9190611667565b60405180910390f35b610282600480360381019061027d919061188a565b610876565b005b61029e600480360381019061029991906119ff565b61088c565b005b6102a86108ee565b6040516102b59190611816565b60405180910390f35b6102d860048036038101906102d391906116bf565b610919565b6040516102e59190611667565b60405180910390f35b61030860048036038101906103039190611a82565b6109ad565b60405161031591906115b3565b60405180910390f35b60007f80ac58cd000000000000000000000000000000000000000000000000000000007bffffffffffffffffffffffffffffffffffffffffffffffffffffffff1916827bffffffffffffffffffffffffffffffffffffffffffffffffffffffff191614806103e957507f5b5e139f000000000000000000000000000000000000000000000000000000007bffffffffffffffffffffffffffffffffffffffffffffffffffffffff1916827bffffffffffffffffffffffffffffffffffffffffffffffffffffffff1916145b806103f957506103f882610a41565b5b9050919050565b60606000805461040f90611af1565b80601f016020809104026020016040519081016040528092919081815260200182805461043b90611af1565b80156104885780601f1061045d57610100808354040283529160200191610488565b820191906000526020600020905b81548152906001019060200180831161046b57829003601f168201915b5050505050905090565b600061049d82610aab565b6004600083815260200190815260200160002060009054906101000a900473ffffffffffffffffffffffffffffffffffffffff169050919050565b60006104e382610670565b90508073ffffffffffffffffffffffffffffffffffffffff168373ffffffffffffffffffffffffffffffffffffffff161415610554576040517f08c379a000000000000000000000000000000000000000000000000000000000815260040161054b90611b95565b60405180910390fd5b8073ffffffffffffffffffffffffffffffffffffffff16610573610af6565b73ffffffffffffffffffffffffffffffffffffffff1614806105a257506105a18161059c610af6565b6109ad565b5b6105e1576040517f08c379a00000000000000000000000000000000000000000000000000000000081526004016105d890611c27565b60405180910390fd5b6105eb8383610afe565b505050565b6106016105fb610af6565b82610bb7565b610640576040517f08c379a000000000000000000000000000000000000000000000000000000000815260040161063790611cb9565b60405180910390fd5b61064b838383610c4c565b505050565b61066b8383836040518060200160405280600081525061088c565b505050565b6000806002600084815260200190815260200160002060009054906101000a900473ffffffffffffffffffffffffffffffffffffffff169050600073ffffffffffffffffffffffffffffffffffffffff168173ffffffffffffffffffffffffffffffffffffffff161415610719576040517f08c379a000000000000000000000000000000000000000000000000000000000815260040161071090611d25565b60405180910390fd5b80915050919050565b6000600654905090565b60008073ffffffffffffffffffffffffffffffffffffffff168273ffffffffffffffffffffffffffffffffffffffff16141561079d576040517f08c379a000000000000000000000000000000000000000000000000000000000815260040161079490611db7565b60405180910390fd5b600360008373ffffffffffffffffffffffffffffffffffffffff1673ffffffffffffffffffffffffffffffffffffffff168152602001908152602001600020549050919050565b6060600180546107f390611af1565b80601f016020809104026020016040519081016040528092919081815260200182805461081f90611af1565b801561086c5780601f106108415761010080835404028352916020019161086c565b820191906000526020600020905b81548152906001019060200180831161084f57829003601f168201915b5050505050905090565b610888610881610af6565b8383610eb3565b5050565b61089d610897610af6565b83610bb7565b6108dc576040517f08c379a00000000000000000000000000000000000000000000000000000000081526004016108d390611cb9565b60405180910390fd5b6108e884848484611020565b50505050565b60006108fc3360065461107c565b600160065461090b9190611e06565b600681905550600654905090565b60606007805461092890611af1565b80601f016020809104026020016040519081016040528092919081815260200182805461095490611af1565b80156109a15780601f10610976576101008083540402835291602001916109a1565b820191906000526020600020905b81548152906001019060200180831161098457829003601f168201915b50505050509050919050565b6000600560008473ffffffffffffffffffffffffffffffffffffffff1673ffffffffffffffffffffffffffffffffffffffff16815260200190815260200160002060008373ffffffffffffffffffffffffffffffffffffffff1673ffffffffffffffffffffffffffffffffffffffff16815260200190815260200160002060009054906101000a900460ff16905092915050565b60007f01ffc9a7000000000000000000000000000000000000000000000000000000007bffffffffffffffffffffffffffffffffffffffffffffffffffffffff1916827bffffffffffffffffffffffffffffffffffffffffffffffffffffffff1916149050919050565b610ab48161109a565b610af3576040517f08c379a0000000000000000000000000000000000000000000000000000000008152600401610aea90611d25565b60405180910390fd5b50565b600033905090565b816004600083815260200190815260200160002060006101000a81548173ffffffffffffffffffffffffffffffffffffffff021916908373ffffffffffffffffffffffffffffffffffffffff160217905550808273ffffffffffffffffffffffffffffffffffffffff16610b7183610670565b73ffffffffffffffffffffffffffffffffffffffff167f8c5be1e5ebec7d5bd14f71427d1e84f3dd0314c0f7b2291e5b200ac8c7c3b92560405160405180910390a45050565b600080610bc383610670565b90508073ffffffffffffffffffffffffffffffffffffffff168473ffffffffffffffffffffffffffffffffffffffff161480610c055750610c0481856109ad565b5b80610c4357508373ffffffffffffffffffffffffffffffffffffffff16610c2b84610492565b73ffffffffffffffffffffffffffffffffffffffff16145b91505092915050565b8273ffffffffffffffffffffffffffffffffffffffff16610c6c82610670565b73ffffffffffffffffffffffffffffffffffffffff1614610cc2576040517f08c379a0000000000000000000000000000000000000000000000000000000008152600401610cb990611ece565b60405180910390fd5b600073ffffffffffffffffffffffffffffffffffffffff168273ffffffffffffffffffffffffffffffffffffffff161415610d32576040517f08c379a0000000000000000000000000000000000000000000000000000000008152600401610d2990611f60565b60405180910390fd5b610d3d838383611106565b610d48600082610afe565b6001600360008573ffffffffffffffffffffffffffffffffffffffff1673ffffffffffffffffffffffffffffffffffffffff1681526020019081526020016000206000828254610d989190611f80565b925050819055506001600360008473ffffffffffffffffffffffffffffffffffffffff1673ffffffffffffffffffffffffffffffffffffffff1681526020019081526020016000206000828254610def9190611e06565b92505081905550816002600083815260200190815260200160002060006101000a81548173ffffffffffffffffffffffffffffffffffffffff021916908373ffffffffffffffffffffffffffffffffffffffff160217905550808273ffffffffffffffffffffffffffffffffffffffff168473ffffffffffffffffffffffffffffffffffffffff167fddf252ad1be2c89b69c2b068fc378daa952ba7f163c4a11628f55a4df523b3ef60405160405180910390a4610eae83838361110b565b505050565b8173ffffffffffffffffffffffffffffffffffffffff168373ffffffffffffffffffffffffffffffffffffffff161415610f22576040517f08c379a0000000000000000000000000000000000000000000000000000000008152600401610f1990612000565b60405180910390fd5b80600560008573ffffffffffffffffffffffffffffffffffffffff1673ffffffffffffffffffffffffffffffffffffffff16815260200190815260200160002060008473ffffffffffffffffffffffffffffffffffffffff1673ffffffffffffffffffffffffffffffffffffffff16815260200190815260200160002060006101000a81548160ff0219169083151502179055508173ffffffffffffffffffffffffffffffffffffffff168373ffffffffffffffffffffffffffffffffffffffff167f17307eab39ab6107e8899845ad3d59bd9653f200f220920489ca2b5937696c318360405161101391906115b3565b60405180910390a3505050565b61102b848484610c4c565b61103784848484611110565b611076576040517f08c379a000000000000000000000000000000000000000000000000000000000815260040161106d90612092565b60405180910390fd5b50505050565b6110968282604051806020016040528060008152506112a7565b5050565b60008073ffffffffffffffffffffffffffffffffffffffff166002600084815260200190815260200160002060009054906101000a900473ffffffffffffffffffffffffffffffffffffffff1673ffffffffffffffffffffffffffffffffffffffff1614159050919050565b505050565b505050565b60006111318473ffffffffffffffffffffffffffffffffffffffff16611302565b1561129a578373ffffffffffffffffffffffffffffffffffffffff1663150b7a0261115a610af6565b8786866040518563ffffffff1660e01b815260040161117c9493929190612107565b602060405180830381600087803b15801561119657600080fd5b505af19250505080156111c757506040513d601f19601f820116820180604052508101906111c49190612168565b60015b61124a573d80600081146111f7576040519150601f19603f3d011682016040523d82523d6000602084013e6111fc565b606091505b50600081511415611242576040517f08c379a000000000000000000000000000000000000000000000000000000000815260040161123990612092565b60405180910390fd5b805181602001fd5b63150b7a0260e01b7bffffffffffffffffffffffffffffffffffffffffffffffffffffffff1916817bffffffffffffffffffffffffffffffffffffffffffffffffffffffff19161491505061129f565b600190505b949350505050565b6112b18383611325565b6112be6000848484611110565b6112fd576040517f08c379a00000000000000000000000000000000000000000000000000000000081526004016112f490612092565b60405180910390fd5b505050565b6000808273ffffffffffffffffffffffffffffffffffffffff163b119050919050565b600073ffffffffffffffffffffffffffffffffffffffff168273ffffffffffffffffffffffffffffffffffffffff161415611395576040517f08c379a000000000000000000000000000000000000000000000000000000000815260040161138c906121e1565b60405180910390fd5b61139e8161109a565b156113de576040517f08c379a00000000000000000000000000000000000000000000000000000000081526004016113d59061224d565b60405180910390fd5b6113ea60008383611106565b6001600360008473ffffffffffffffffffffffffffffffffffffffff1673ffffffffffffffffffffffffffffffffffffffff168152602001908152602001600020600082825461143a9190611e06565b92505081905550816002600083815260200190815260200160002060006101000a81548173ffffffffffffffffffffffffffffffffffffffff021916908373ffffffffffffffffffffffffffffffffffffffff160217905550808273ffffffffffffffffffffffffffffffffffffffff16600073ffffffffffffffffffffffffffffffffffffffff167fddf252ad1be2c89b69c2b068fc378daa952ba7f163c4a11628f55a4df523b3ef60405160405180910390a46114fb6000838361110b565b5050565b6000604051905090565b600080fd5b600080fd5b60007fffffffff0000000000000000000000000000000000000000000000000000000082169050919050565b61154881611513565b811461155357600080fd5b50565b6000813590506115658161153f565b92915050565b60006020828403121561158157611580611509565b5b600061158f84828501611556565b91505092915050565b60008115159050919050565b6115ad81611598565b82525050565b60006020820190506115c860008301846115a4565b92915050565b600081519050919050565b600082825260208201905092915050565b60005b838110156116085780820151818401526020810190506115ed565b83811115611617576000848401525b50505050565b6000601f19601f8301169050919050565b6000611639826115ce565b61164381856115d9565b93506116538185602086016115ea565b61165c8161161d565b840191505092915050565b60006020820190508181036000830152611681818461162e565b905092915050565b6000819050919050565b61169c81611689565b81146116a757600080fd5b50565b6000813590506116b981611693565b92915050565b6000602082840312156116d5576116d4611509565b5b60006116e3848285016116aa565b91505092915050565b600073ffffffffffffffffffffffffffffffffffffffff82169050919050565b6000611717826116ec565b9050919050565b6117278161170c565b82525050565b6000602082019050611742600083018461171e565b92915050565b6117518161170c565b811461175c57600080fd5b50565b60008135905061176e81611748565b92915050565b6000806040838503121561178b5761178a611509565b5b60006117998582860161175f565b92505060206117aa858286016116aa565b9150509250929050565b6000806000606084860312156117cd576117cc611509565b5b60006117db8682870161175f565b93505060206117ec8682870161175f565b92505060406117fd868287016116aa565b9150509250925092565b61181081611689565b82525050565b600060208201905061182b6000830184611807565b92915050565b60006020828403121561184757611846611509565b5b60006118558482850161175f565b91505092915050565b61186781611598565b811461187257600080fd5b50565b6000813590506118848161185e565b92915050565b600080604083850312156118a1576118a0611509565b5b60006118af8582860161175f565b92505060206118c085828601611875565b9150509250929050565b600080fd5b600080fd5b7f4e487b7100000000000000000000000000000000000000000000000000000000600052604160045260246000fd5b61190c8261161d565b810181811067ffffffffffffffff8211171561192b5761192a6118d4565b5b80604052505050565b600061193e6114ff565b905061194a8282611903565b919050565b600067ffffffffffffffff82111561196a576119696118d4565b5b6119738261161d565b9050602081019050919050565b82818337600083830152505050565b60006119a261199d8461194f565b611934565b9050828152602081018484840111156119be576119bd6118cf565b5b6119c9848285611980565b509392505050565b600082601f8301126119e6576119e56118ca565b5b81356119f684826020860161198f565b91505092915050565b60008060008060808587031215611a1957611a18611509565b5b6000611a278782880161175f565b9450506020611a388782880161175f565b9350506040611a49878288016116aa565b925050606085013567ffffffffffffffff811115611a6a57611a6961150e565b5b611a76878288016119d1565b91505092959194509250565b60008060408385031215611a9957611a98611509565b5b6000611aa78582860161175f565b9250506020611ab88582860161175f565b9150509250929050565b7f4e487b7100000000000000000000000000000000000000000000000000000000600052602260045260246000fd5b60006002820490506001821680611b0957607f821691505b60208210811415611b1d57611b1c611ac2565b5b50919050565b7f4552433732313a20617070726f76616c20746f2063757272656e74206f776e6560008201527f7200000000000000000000000000000000000000000000000000000000000000602082015250565b6000611b7f6021836115d9565b9150611b8a82611b23565b604082019050919050565b60006020820190508181036000830152611bae81611b72565b9050919050565b7f4552433732313a20617070726f76652063616c6c6572206973206e6f7420746f60008201527f6b656e206f776e6572206e6f7220617070726f76656420666f7220616c6c0000602082015250565b6000611c11603e836115d9565b9150611c1c82611bb5565b604082019050919050565b60006020820190508181036000830152611c4081611c04565b9050919050565b7f4552433732313a2063616c6c6572206973206e6f7420746f6b656e206f776e6560008201527f72206e6f7220617070726f766564000000000000000000000000000000000000602082015250565b6000611ca3602e836115d9565b9150611cae82611c47565b604082019050919050565b60006020820190508181036000830152611cd281611c96565b9050919050565b7f4552433732313a20696e76616c696420746f6b656e2049440000000000000000600082015250565b6000611d0f6018836115d9565b9150611d1a82611cd9565b602082019050919050565b60006020820190508181036000830152611d3e81611d02565b9050919050565b7f4552433732313a2061646472657373207a65726f206973206e6f74206120766160008201527f6c6964206f776e65720000000000000000000000000000000000000000000000602082015250565b6000611da16029836115d9565b9150611dac82611d45565b604082019050919050565b60006020820190508181036000830152611dd081611d94565b9050919050565b7f4e487b7100000000000000000000000000000000000000000000000000000000600052601160045260246000fd5b6000611e1182611689565b9150611e1c83611689565b9250827fffffffffffffffffffffffffffffffffffffffffffffffffffffffffffffffff03821115611e5157611e50611dd7565b5b828201905092915050565b7f4552433732313a207472616e736665722066726f6d20696e636f72726563742060008201527f6f776e6572000000000000000000000000000000000000000000000000000000602082015250565b6000611eb86025836115d9565b9150611ec382611e5c565b604082019050919050565b60006020820190508181036000830152611ee781611eab565b9050919050565b7f4552433732313a207472616e7366657220746f20746865207a65726f2061646460008201527f7265737300000000000000000000000000000000000000000000000000000000602082015250565b6000611f4a6024836115d9565b9150611f5582611eee565b604082019050919050565b60006020820190508181036000830152611f7981611f3d565b9050919050565b6000611f8b82611689565b9150611f9683611689565b925082821015611fa957611fa8611dd7565b5b828203905092915050565b7f4552433732313a20617070726f766520746f2063616c6c657200000000000000600082015250565b6000611fea6019836115d9565b9150611ff582611fb4565b602082019050919050565b6000602082019050818103600083015261201981611fdd565b9050919050565b7f4552433732313a207472616e7366657220746f206e6f6e20455243373231526560008201527f63656976657220696d706c656d656e7465720000000000000000000000000000602082015250565b600061207c6032836115d9565b915061208782612020565b604082019050919050565b600060208201905081810360008301526120ab8161206f565b9050919050565b600081519050919050565b600082825260208201905092915050565b60006120d9826120b2565b6120e381856120bd565b93506120f38185602086016115ea565b6120fc8161161d565b840191505092915050565b600060808201905061211c600083018761171e565b612129602083018661171e565b6121366040830185611807565b818103606083015261214881846120ce565b905095945050505050565b6000815190506121628161153f565b92915050565b60006020828403121561217e5761217d611509565b5b600061218c84828501612153565b91505092915050565b7f4552433732313a206d696e7420746f20746865207a65726f2061646472657373600082015250565b60006121cb6020836115d9565b91506121d682612195565b602082019050919050565b600060208201905081810360008301526121fa816121be565b9050919050565b7f4552433732313a20746f6b656e20616c7265616479206d696e74656400000000600082015250565b6000612237601c836115d9565b915061224282612201565b602082019050919050565b600060208201905081810360008301526122668161222a565b905091905056fea2646970667358221220bf99f8405f16237cb0e52346d829408bf13d5899c9b8b9e8f8ff8ff8414990d364736f6c63430008080033",
  "devdoc": {
    "kind": "dev",
    "methods": {
      "approve(address,uint256)": {
        "details": "See {IERC721-approve}."
      },
      "balanceOf(address)": {
        "details": "See {IERC721-balanceOf}."
      },
      "getApproved(uint256)": {
        "details": "See {IERC721-getApproved}."
      },
      "isApprovedForAll(address,address)": {
        "details": "See {IERC721-isApprovedForAll}."
      },
      "name()": {
        "details": "See {IERC721Metadata-name}."
      },
      "ownerOf(uint256)": {
        "details": "See {IERC721-ownerOf}."
      },
      "safeTransferFrom(address,address,uint256)": {
        "details": "See {IERC721-safeTransferFrom}."
      },
      "safeTransferFrom(address,address,uint256,bytes)": {
        "details": "See {IERC721-safeTransferFrom}."
      },
      "setApprovalForAll(address,bool)": {
        "details": "See {IERC721-setApprovalForAll}."
      },
      "supportsInterface(bytes4)": {
        "details": "See {IERC165-supportsInterface}."
      },
      "symbol()": {
        "details": "See {IERC721Metadata-symbol}."
      },
      "transferFrom(address,address,uint256)": {
        "details": "See {IERC721-transferFrom}."
      }
    },
    "version": 1
  },
  "userdoc": {
    "kind": "user",
    "methods": {},
    "version": 1
  },
  "storageLayout": {
    "storage": [
      {
        "astId": 25,
        "contract": "contracts/PkNft.sol:PkNft",
        "label": "_name",
        "offset": 0,
        "slot": "0",
        "type": "t_string_storage"
      },
      {
        "astId": 27,
        "contract": "contracts/PkNft.sol:PkNft",
        "label": "_symbol",
        "offset": 0,
        "slot": "1",
        "type": "t_string_storage"
      },
      {
        "astId": 31,
        "contract": "contracts/PkNft.sol:PkNft",
        "label": "_owners",
        "offset": 0,
        "slot": "2",
        "type": "t_mapping(t_uint256,t_address)"
      },
      {
        "astId": 35,
        "contract": "contracts/PkNft.sol:PkNft",
        "label": "_balances",
        "offset": 0,
        "slot": "3",
        "type": "t_mapping(t_address,t_uint256)"
      },
      {
        "astId": 39,
        "contract": "contracts/PkNft.sol:PkNft",
        "label": "_tokenApprovals",
        "offset": 0,
        "slot": "4",
        "type": "t_mapping(t_uint256,t_address)"
      },
      {
        "astId": 45,
        "contract": "contracts/PkNft.sol:PkNft",
        "label": "_operatorApprovals",
        "offset": 0,
        "slot": "5",
        "type": "t_mapping(t_address,t_mapping(t_address,t_bool))"
      },
      {
        "astId": 1613,
        "contract": "contracts/PkNft.sol:PkNft",
        "label": "s_tokenCounter",
        "offset": 0,
        "slot": "6",
        "type": "t_uint256"
      },
      {
        "astId": 1615,
        "contract": "contracts/PkNft.sol:PkNft",
        "label": "s_tokenUri",
        "offset": 0,
        "slot": "7",
        "type": "t_string_storage"
      }
    ],
    "types": {
      "t_address": {
        "encoding": "inplace",
        "label": "address",
        "numberOfBytes": "20"
      },
      "t_bool": {
        "encoding": "inplace",
        "label": "bool",
        "numberOfBytes": "1"
      },
      "t_mapping(t_address,t_bool)": {
        "encoding": "mapping",
        "key": "t_address",
        "label": "mapping(address => bool)",
        "numberOfBytes": "32",
        "value": "t_bool"
      },
      "t_mapping(t_address,t_mapping(t_address,t_bool))": {
        "encoding": "mapping",
        "key": "t_address",
        "label": "mapping(address => mapping(address => bool))",
        "numberOfBytes": "32",
        "value": "t_mapping(t_address,t_bool)"
      },
      "t_mapping(t_address,t_uint256)": {
        "encoding": "mapping",
        "key": "t_address",
        "label": "mapping(address => uint256)",
        "numberOfBytes": "32",
        "value": "t_uint256"
      },
      "t_mapping(t_uint256,t_address)": {
        "encoding": "mapping",
        "key": "t_uint256",
        "label": "mapping(uint256 => address)",
        "numberOfBytes": "32",
        "value": "t_address"
      },
      "t_string_storage": {
        "encoding": "bytes",
        "label": "string",
        "numberOfBytes": "32"
      },
      "t_uint256": {
        "encoding": "inplace",
        "label": "uint256",
        "numberOfBytes": "32"
      }
    }
  }
}